:100000000C9431040C9443040C9443040C943A2A49
:100010000C94E9320C9443040C9443040C94430470
:100020000C9443040C9443040C9443040C944B1719
:100030000C9443040C9443040C9443040C94430424
:100040000C946A190C9443040C94D2140C949414D8
:100050000C9443040C9443040C9443040C94430404
:100060000C9443040C9443043E0B010D010D480B0A
:10007000550B620B6F0B010D730B010D810B010D05
:100080008B0B950BC60B010D010D010D9F0BAC0BDE
:10009000B90BAE11BF11F211BF11F6110912FC110B
:1000A00002121E122E1247126D12A212AC12B812B8
:1000B000C21244234A234D23502355235D23672333
:1000C000D323D323D3236F2372237B238423D323EC
:1000D000D323D323D323D323D3238C239623A22325
:1000E000AA23AD23B623BF23C523312E342E392EA8
:1000F0003C2E3F2E422E452E482E4B2E4E2E512E5C
:100100005D2E5D2E5D2E5D2E5D2E5D2E5D2E5D2E97
:10011000572E542E5A2EA42EA72EAA2EAD2EB02E18
:10012000B32EB62EB92E084AD73B3BCE016E84BC07
:10013000BFFDC12F3D6C74319ABD56833DDA3D0041
:10014000C77F11BED9E4BB4C3E916BAAAABE00008A
:1001500000803F05A84CCDB2D44EB93836A9020C68
:1001600050B9918688083CA6AAAA2ABE0000008041
:100170003F3E0D0A002C4C696D3A006F66663A00EE
:100180006F6E3A002C6C6173657220002C52583AE5
:10019000002C4275663A002C002C57506F733A00C1
:1001A0002C002C4D506F733A003C446F6F72003C32
:1001B000436865636B003C416C61726D003C486F45
:1001C0006D65003C486F6C64003C52756E003C49A4
:1001D000646C65005D0D0A005B302E396A2E323585
:1001E00034623038623A000D0A003D00244E005D52
:1001F0000D0A00205300204600205400204D3800F6
:10020000204D3900204D3500204D3400204D330065
:10021000204D3200204D3100204D30002047393430
:10022000002047393300204739310020473930005A
:10023000204732300020473231002047313900203A
:100240004731380020473137002047004733382EE8
:10025000004738300047330047320047310047300D
:10026000005B005D0D0A005B544C4F3A005D0D0AC7
:10027000002C005B4739323A005D0D0A002C003A31
:10028000003330003238005B47005D0D0A003A0051
:100290002C005B5052423A00290D0A00206D617813
:1002A0002074726176656C2C206D6D002061636333
:1002B000656C2C206D6D2F7365635E3200206D615F
:1002C0007820726174652C206D6D2F6D696E002C25
:1002D00020737465702F6D6D007A007900780020AE
:1002E00028003D0024002028686F6D696E6720702B
:1002F000756C6C2D6F66662C206D6D290D0A0020C3
:1003000028686F6D696E67206465626F756E6365DE
:100310002C206D736563290D0A2432373D00202897
:10032000686F6D696E67207365656B2C206D6D2F2E
:100330006D696E290D0A2432363D002028686F6DE4
:10034000696E6720666565642C206D6D2F6D696E22
:10035000290D0A2432353D00290D0A2432343D008E
:100360002028686F6D696E672064697220696E76F7
:10037000657274206D61736B3A002028686F6D6937
:100380006E67206379636C652C20626F6F6C290D3A
:100390000A2432333D00202868617264206C696D44
:1003A0006974732C20626F6F6C290D0A2432323D00
:1003B000002028736F6674206C696D6974732C203B
:1003C000626F6F6C290D0A2432313D00202872655E
:1003D000706F727420696E636865732C20626F6F32
:1003E0006C290D0A2432303D00202861726320748C
:1003F0006F6C6572616E63652C206D6D290D0A242A
:1004000031333D0020286A756E6374696F6E206415
:100410006576696174696F6E2C206D6D290D0A24F3
:1004200031323D00290D0A2431313D0020287374FA
:1004300061747573207265706F7274206D61736B77
:100440003A00202870726F62652070696E20696EB4
:10045000766572742C20626F6F6C290D0A2431301E
:100460003D0020286C696D69742070696E73206985
:100470006E766572742C20626F6F6C290D0A2436BB
:100480003D0020287374657020656E61626C652084
:10049000696E766572742C20626F6F6C290D0A2468
:1004A000353D00290D0A24343D002028646972205E
:1004B000706F727420696E76657274206D61736BF3
:1004C0003A00290D0A24333D0020287374657020FA
:1004D000706F727420696E76657274206D61736BD3
:1004E0003A002028737465702069646C6520646527
:1004F0006C61792C206D736563290D0A24323D00EF
:100500002028737465702070756C73652C2075736A
:100510006563290D0A24313D0024303D0024242048
:100520002876696577204772626C207365747469F8
:100530006E6773290D0A24232028766965772023A6
:1005400020706172616D6574657273290D0A2447AC
:1005500020287669657720706172736572207374E4
:10056000617465290D0A244920287669657720621F
:1005700075696C6420696E666F290D0A244E202807
:1005800076696577207374617274757020626C6F20
:10059000636B73290D0A24783D76616C756520289C
:1005A00073617665204772626C2073657474696E3E
:1005B00067290D0A244E783D6C696E6520287361A9
:1005C0007665207374617274757020626C6F636BF2
:1005D000290D0A24432028636865636B2067636FD5
:1005E0006465206D6F6465290D0A245820286B69A5
:1005F0006C6C20616C61726D206C6F636B290D0AED
:100600002448202872756E20686F6D696E672063BC
:1006100079636C65290D0A7E20286379636C6520F7
:100620007374617274290D0A21202866656564203F
:10063000686F6C64290D0A3F202863757272656EBD
:100640007420737461747573290D0A6374726C2D50
:100650007820287265736574204772626C290D0AD0
:10066000000D0A4772626C20302E396A5F323534D1
:1006700062303862205B27242720666F722068650D
:100680006C705D0D0A005D0D0A00526573746F7227
:10069000696E672064656661756C74730050676D80
:1006A00020456E6400436865636B20446F6F720081
:1006B00044697361626C656400456E61626C656477
:1006C0000043617574696F6E3A20556E6C6F636B91
:1006D000656400272448277C2724582720746F202E
:1006E000756E6C6F636B00526573657420746F2058
:1006F000636F6E74696E7565005B000D0A00486F6C
:100700006D696E67206661696C0050726F6265206A
:100710006661696C0041626F727420647572696E03
:1007200067206379636C6500536F6674206C696D34
:1007300069740048617264206C696D697400414C91
:1007400041524D3A20000D0A00496E76616C696491
:100750002067636F64652049443A00556E6465669E
:10076000696E656420666565642072617465005514
:100770006E737570706F7274656420636F6D6D61F8
:100780006E64004D6F64616C2067726F75702076C7
:10079000696F6C6174696F6E004C696E65206F766D
:1007A0006572666C6F7700486F6D696E67206E6F5B
:1007B0007420656E61626C656400416C61726D20CD
:1007C0006C6F636B004E6F742069646C6500454507
:1007D00050524F4D2072656164206661696C2E2015
:1007E0005573696E672064656661756C7473005635
:1007F000616C7565203C203320757365630053651B
:100800007474696E672064697361626C6564005614
:10081000616C7565203C203000496E76616C6964BE
:100820002073746174656D656E7400426164206E3E
:10083000756D62657220666F726D617400457870C7
:10084000656374656420636F6D6D616E64206C65B3
:1008500074746572006572726F723A20006F6B0D6E
:100860000A0011241FBECFEFD8E0DEBFCDBF17E0D6
:10087000A0E0B1E001C01D92A134B107E1F70E94F0
:1008800045040C9442390C9400000E9462140E94AA
:10089000DF230E94E8190E94D8328EE1EAE9F5E0F0
:1008A000DF011D928A95E9F781E080939A0578949B
:1008B0008091300784FF03C081E080939B050E94F4
:1008C00030150E9408090E94A0130E943A140E9449
:1008D000E9290E94E72D0E9425250E94BC190E944B
:1008E000B9280E941A0910929A051092B805109220
:1008F000BA0510929C0510929D050E946D16DFCFDF
:10090000AF92BF92CF92DF92EF92FF920F931F931D
:10091000CF93DF9300D000D0CDB7DEB75C01122FAC
:100920008091300785FF0BC0C50149835A836B83D3
:100930007C830E944B2C7C816B815A814981809100
:100940009B058230E9F049835A836B837C830E9444
:10095000351580919A05811113C00E947425498133
:100960005A816B817C81882339F00E946416498109
:100970005A816B817C81E7CF212FC5010E947C25A4
:100980000F900F900F900F90DF91CF911F910F91CB
:10099000FF90EF90DF90CF90BF90AF9008952F928F
:1009A0003F924F925F926F927F928F929F92AF92FF
:1009B000BF92CF92DF92EF92FF920F931F93CF934C
:1009C000DF93CDB7DEB7E7970FB6F894DEBF0FBE63
:1009D000CDBF9E878D871B013A0109871A872B8718
:1009E0003C87CF86D88AE98AFA8AAD8A24E0829E3B
:1009F00020011124840D951D9F8B8E8BCA01840DBF
:100A0000951D998F888FDC018D909D90AD90BC9045
:100A1000EE89FF892081318142815381C501B40172
:100A20000E94F0346A8F7B8F8C8F9D8F2D960FAD37
:100A30002D97F4E00F9F800111242D853E85200F16
:100A4000311F3F8F2E8FC301800F911F99A388A361
:100A5000DC01CD90DD90ED90FC90F9012081318199
:100A600042815381C701B6010E94F0346AA37BA37F
:100A70008CA39DA3D501C401B0588D839E83AF8301
:100A8000B887D701C601B05889839A83AB83BC83EA
:100A9000F101E40DF51D2A8D3B8D4C8D5D8D60813E
:100AA0007181828193810E94EF346B017C01F1019D
:100AB000E00FF11F2AA13BA14CA15DA160817181D2
:100AC000828193810E94EF344B015C01A701960162
:100AD0006D817E818F8198850E9407382B013C01B2
:100AE000A501940169817A818B819C810E940738DC
:100AF0009B01AC01C301B2010E94F0342B013C0107
:100B0000A50194016D817E818F8198850E940738AF
:100B10004B015C01A701960169817A818B819C81DF
:100B20000E9407389B01AC01C501B4010E94EF345B
:100B3000A30192010E9463356B017C012F968FAD5A
:100B40002F97882399F02DEB37E346E055EBC7014B
:100B5000B6010E94CC3787FD1DC02BED3FE049EC6C
:100B600050E4C701B6010E94EF3412C02DEB37E309
:100B700046E055E3C701B6010E94C935181654F086
:100B80002BED3FE049EC50E4C701B6010E94F03480
:100B90006B017C0180902C0790902D07A0902E0770
:100BA000B0902F0729853A854B855C85CA01B9012C
:100BB0000E94F034A50194010E94EF349B01AC0126
:100BC000C501B4010E9407380E9494384B015C01B2
:100BD00020E030E040E05FE3C701B6010E94073843
:100BE00029853A854B855C850E9407389F77A5014A
:100BF00094010E94D0350E94A6360E943D367FA304
:100C00006EA3DB01AB2B09F490C14B01A12CB12CDD
:100C1000BD89BB2381F0C501B4010E9469369B01E7
:100C2000AC016F85788989899A890E9407386F8716
:100C3000788B898B9A8BC501B4010E9469364B0170
:100C40005C019B01AC01C701B6010E94D0352B01AC
:100C50003C012E968FAD2E97E4E08E9FC0011124AB
:100C60002D853E85280F391F3C8B2B8BF101E80F1A
:100C7000F91FD9012D913D914D915C916081718158
:100C8000828193810E94EF34A50194010E94D035A6
:100C90006CAB7DAB8EAB9FABA3019201C301B201E4
:100CA0000E9407389B01AC0160E070E080E090E4B6
:100CB0000E94EF346B017C012BEA3AEA4AE25EE3E0
:100CC000C301B2010E9407384B015C0120E030E013
:100CD00040E850E4C701B6010E94F0349B01AC012A
:100CE000C501B4010E94073868A779A78AA79BA706
:100CF00020E030E040E05FE3C701B6010E94073822
:100D00006CA77DA78EA79FA710E0E1E0F0E0FA872F
:100D1000E98729853A858EA19FA12817390709F40B
:100D200004C11C3008F048C02CA53DA54EA55FA508
:100D300069817A818B819C810E9407386B017C01DB
:100D400028A539A54AA55BA56D817E818F819885EF
:100D50000E940738A70196010E94F034B62EA72EF4
:100D6000982E892E2CA53DA54EA55FA56D817E816F
:100D70008F8198850E9407386B017C0128A539A5D1
:100D80004AA55BA569817A818B819C810E94073885
:100D90009B01AC01C701B6010E94EF346D837E83D5
:100DA0008F8398871F5F8B2D9A2DA92DB82D89834E
:100DB0009A83AB83BC836BC029853A85B90180E0F7
:100DC00090E00E946936A30192010E9407386B01EE
:100DD0007C010E94CD3569837A838B839C83C70114
:100DE000B6010E948A384B015C01A88DB98DCD9067
:100DF000DD90ED90FC90F7FAF094F7F8F094A8A14C
:100E0000B9A18D919D910D90BC91A02D88AB99AB0E
:100E1000AAABBBAB29813A814B815C81C701B6018A
:100E20000E9407386D837E838F839887A501940184
:100E300068A979A98AA99BA90E9407389B01AC01DE
:100E40006D817E818F8198850E94F0346D837E83D1
:100E50008F839887A5019401C701B6010E940738C6
:100E60006B017C0129813A814B815C8168A979A958
:100E70008AA99BA90E9407389B01AC01C701B60152
:100E80000E94EF3469837A838B839C8310E02D81E9
:100E90003E814F8158856A8D7B8D8C8D9D8D0E9402
:100EA000F034EE89FF896083718382839383298183
:100EB0003A814B815C816AA17BA18CA19DA10E949A
:100EC000F034AE8DBF8D6D937D938D939C9313976E
:100ED0002CA93DA94EA95FA9EB89FC89608171818C
:100EE000828193810E94F034AB89BC896D937D939C
:100EF0008D939C9313976496CCACDDACEEACFFACB9
:100F0000649760960FAD60972D894F8558896989E0
:100F10007A898D859E850E94800480919A05811131
:100F200015C0E985FA853196F2CE6496CCACDDAC7D
:100F3000EEACFFAC649760960FAD60972D894F853E
:100F4000588969897A89C1010E948004E7960FB6A1
:100F5000F894DEBF0FBECDBFDF91CF911F910F91EF
:100F6000FF90EF90DF90CF90BF90AF909F908F90C9
:100F70007F906F905F904F903F902F9008958F9249
:100F80009F92AF92BF92CF92DF92EF92FF924B016E
:100F90005C0180919B05823009F447C020E030E07D
:100FA00040EA51E4C501B4010E9407380E94A63608
:100FB0000E943D366B017C010E94EF1620E030E07C
:100FC0004AE754E4C501B4010E9407384B015C01B3
:100FD00082E38C9DB0018D9D700D112480E090E026
:100FE0000E9469369B01AC01C501B4010E94EF3437
:100FF0000E94A6360E943D36CB010E94AD29C11445
:10100000D10499F00E94351521E0C21AD1088091CF
:101010009A0581110AC08FEF90E722E0815090403D
:101020002040E1F700C00000EACFFF90EF90DF9092
:10103000CF90BF90AF909F908F9008950E94DE292F
:1010400083E00E946E2A0E94351580919A058111D5
:1010500004C00E941A090C94E9290895AF92BF9226
:10106000CF92DF92EF92FF920F931F93CF93DF9374
:1010700000D000D01F92CDB7DEB75C011E2D80914D
:101080009B05823009F489C02D8349835A836B8381
:101090007C830E94EF161092B605802F0E94EA2DE5
:1010A0000E94FC2D2D8149815A816B817C8188238E
:1010B000A1F09FB7F8948091BA0580618093BA053A
:1010C0009FBF2D8349835A836B837C830E94351590
:1010D0007C816B815A8149812D8180919A05811192
:1010E0005CC0C12CD12C760100E0C5010E948004B7
:1010F00081E08093B9059FB7F8948091B80582602C
:101100008093B8059FBF0E94351580919A05811183
:1011100044C080919B058111F6CF8091B905813043
:10112000A9F4112351F08CE0EEE9F5E0AAEAB5E06C
:1011300001900D928A95E1F70CC09FB7F8948091C9
:10114000BA0580618093BA059FBF03C081E0809398
:10115000B6051092B9050E94351580919A05811146
:101160001CC00E94BC190E9425250E94B9286EE966
:1011700075E0C5010E94D5340F900F900F900F902D
:101180000F90DF91CF911F910F91FF90EF90DF9023
:10119000CF90BF90AF900C942B300F900F900F908A
:1011A0000F900F90DF91CF911F910F91FF90EF90D3
:1011B000DF90CF90BF90AF9008958091B80584FDE7
:1011C00026C09FB7F8948091B80580618093B805D8
:1011D0009FBF0E9498130E94381480919B05982FFE
:1011E0009C7021F490919C05913089F49FB78430D4
:1011F00029F4F8948091BA05806204C0F894809133
:10120000BA0588608093BA059FBF0C942017089593
:101210008FE3EBEBF5E0DF011D928A95E9F76EEDC8
:1012200075E080E00E94A422811103C087E00C9445
:101230001B2E08956EE975E082ED95E00C94D5348F
:101240002F923F924F925F926F927F928F929F92D6
:10125000AF92BF92CF92DF92EF92FF920F931F93C4
:10126000CF93DF93CDB7DEB7AB970FB6F894DEBF61
:101270000FBECDBF98A38F8F89E3EAEFF5E0DF01C2
:101280001D928A95E9F78AE0EBEBF5E0ABEFB5E06C
:1012900001900D928A95E1F71D8E212C312CA12C05
:1012A000B12C19A2512C1E8E66246394712C08E077
:1012B000402E9924939485E0882E8D8DEF8DF8A192
:1012C000E80FF11D0081002309F48AC29FEB900F03
:1012D0009A3128F00E94981381E00C947F138F5F5D
:1012E0008D8FAE01475E5F4FBE01635E7F4F8F8D76
:1012F00098A10E94FB28811105C00E94981382E0EA
:101300000C947F13C98CDA8CEB8CFC8CC701B60172
:101310000E94D5380E943D36162F70E080E090E0A4
:101320000E946B369B01AC01C701B6010E94EF34ED
:1013300020E030E048EC52E40E9407380E946A380E
:101340000E943D36073421F00D3409F445C185C1B2
:10135000183209F422C1D0F4143158F4113108F0D4
:10136000CEC0143009F457C008F488C01A30A1F177
:1013700048C31C3189F120F4163108F4EBC041C395
:101380001E3151F1163209F479C03BC31D3309F403
:10139000FFC098F4153309F45FC038F41B3209F428
:1013A000E2C0113309F4DFC02CC31C3308F029C399
:1013B00016531093010689E0F5C01C3538F41A3530
:1013C00008F0ACC0103509F497C01BC31C3521F0E0
:1013D0001F3508F4B6C015C36115710551F4BE8DF3
:1013E000BB2329F00E94981388E10C947F13E1E05D
:1013F000EE8F1C3199F038F4143069F01A3009F08E
:10140000CEC082E02AC0153339F11C3549F11E31B6
:1014100009F0C5C012C09092FA05C1C061157105EE
:1014200041F06A30710509F0ECC224E02093FA051E
:1014300009C0F3E0F093FA0505C06115710521F4C8
:101440008092FA0580E0B6C06A30710509F0D9C211
:1014500036E03093FA05F6CF87E08093FA059FC017
:101460006115710541F06A30710509F0CAC299E051
:101470009093FA05E7CF4092FA05E4CFAE8DA11123
:10148000B1CFB2E0BE8F123089F028F4112359F0A9
:10149000113081F086C0163281F0103569F11330B9
:1014A00009F07FC007C01092FB057BC0EE8DE09372
:1014B000FB0577C01093FB0574C06E317105A1F078
:1014C00040F46431710509F09CC2F4E0F093FB052F
:1014D00011C06832710559F06233710509F091C28B
:1014E00037E03093FB0506C08092FB0503C026E081
:1014F0002093FB0581E05EC04092FB0552C0123193
:1015000029F0133139F01092FF0502C09092FF05C7
:1015100082E048C082E08093FF0544C061157105F8
:1015200049F41A3519F41092FE0502C09092FE0596
:1015300083E040C06A30710509F063C21A35C9F50D
:1015400060C21D3519F49092FC0502C01092FC0592
:1015500085E028C0143119F49092FD0502C0109264
:10156000FD0586E01FC08E8D81113CCF113331F413
:101570001092000688E093E09E8F1CC06A307105CF
:1015800009F03FC29092000688E0A3E0AE8F12C03F
:10159000672B09F036C28AE00DC087E003C080E007
:1015A00001C081E0672B31F00E94981387E10C9411
:1015B0007F1384E0F30102C0EE0FFF1F8A95E2F76C
:1015C000CF019F012A213B21232B09F443C00E9414
:1015D000981385E10C947F13672B31F7163018F4BC
:1015E000133048F015C0183008F40BC21A30F8F068
:1015F0001E3151F006C2123039F01E3129F011119E
:1016000020C0909202061DC082E08093020619C09D
:10161000143029F0153039F09092040606C082E0AB
:101620008093040602C0109204068CE00BC01930AF
:1016300021F082E08093030602C0109203068DE041
:1016400001C08BE0930102C0220F331F8A95E2F79D
:10165000C901B8CFA82AB92A30CE802F992787FD93
:101660009095A92FB92FFC01E654F109E531F10558
:1016700008F0C7C1EC5CFF4F0C942D39C0920506F1
:10168000D0920606E0920706F092080680E07FC03E
:10169000C0920906D0920A06E0920B06F0920C0660
:1016A00039A1316039A381E072C0C0920D06D09299
:1016B0000E06E0920F06F092100689A1826089A3BF
:1016C00082E065C0C0921106D0921206E092130625
:1016D000F092140699A1946099A383E058C01093E6
:1016E000150684E054C0C701B6010E9438366093E5
:1016F000160670931706809318069093190685E0D6
:1017000046C0C0921A06D0921B06E0921C06F092C8
:101710001D0686E03CC0C0921E06D0921F06E092D5
:101720002006F092210687E032C0C0922206D092B5
:101730002306E0922406F092250688E028C0C09295
:101740002706D0922806E0922906F0922A06A52DB7
:10175000A1605A2E8AE01BC0C0922B06D0922C06A4
:10176000E0922D06F0922E06B52DB2605B2E8BE036
:101770000EC0C0922F06D0923006E0923106F09251
:101780003206E52DE4605E2E8CE001C089E0830125
:10179000082E02C0000F111F0A94E2F798012221BF
:1017A0003321232B21F00E94981389E1A8C721E659
:1017B00033E002C0359527958A95E2F720FF0DC0EA
:1017C00020E030E0A901C701B6010E94C93587FFBA
:1017D00004C00E94981384E092C7202A312A6DCD5C
:1017E000552029F03E8D311102C082E08E8F25FEFA
:1017F00011C08091160690911706A0911806B0911D
:10180000190680389649A849B10524F00E9498131A
:101810008BE175C78091FC05813031F4FE8DF2308B
:10182000A1F520FC32C0A1C28091BC0581112DC060
:1018300020FE1BC08091FD05813039F523E333E3A1
:101840004BEC51E460910506709106068091070605
:10185000909108060E94073860930506709306066B
:10186000809307069093080610C08091C905909157
:10187000CA05A091CB05B091CC0580930506909345
:101880000606A0930706B093080630FC10C08091AE
:10189000C5059091C605A091C705B091C805809374
:1018A000220690932306A0932406B09325068091E8
:1018B000FA05813041F426FC04C00E9498138CE1A3
:1018C0001EC7E89426F88091FF05882341F08130F7
:1018D00061F019A682E088A791E09FA30BC022E0E7
:1018E00029A731E038A71FA205C0A1E0A9A718A623
:1018F000B2E0BFA38091FD05813021F0EE8DE33091
:10190000B1F52AC0B7E2EB2EB6E0FB2E00E010E006
:10191000C52CD12CC601002E02C0959587950A943E
:10192000E2F780FF10C023E333E34BEC51E4D7012F
:101930006D917D918D919C910E940738F701608394
:101940007183828393830F5F1F4FF4E0EF0EF11CCE
:1019500003301105F9F6D2CF80910006813039F4B9
:1019600024E0521621F00E94981385E2C8C68CE04C
:10197000EEEDF5E0DE011D9601900D928A95E1F7FE
:10198000B1FE14C080910106873020F00E949813A8
:101990008DE1B5C69091C105981741F0BE01635F16
:1019A0007F4F0E94A422882309F43BC63091FA0598
:1019B0003F8F323021F0383009F4A2C007C15110F6
:1019C00004C00E9498138AE19AC6C10180759927C4
:1019D000892B09F472CF60911A0670911B068091D1
:1019E0001C0690911D060E94D5380E943D36673036
:1019F00068F680911506843141F0823011F427FE9B
:101A000004C00E94981384E17AC6662319F06150DD
:101A10006F8F03C0809101068F8FBE016F5F7F4F74
:101A20008F8D0E94A422882309F4FBC540901506DF
:101A30006090F6057090F7058090F8059090F90594
:101A4000DE0111967D01F7E2CF2EF6E0DF2EA2ED4A
:101A5000AA2EA5E0BA2E00E010E0E52DF0E0FEA3EE
:101A6000EDA38DA19EA1002E02C0959587950A94A5
:101A7000E2F780FF33C0F4E14F1226C0D50158963B
:101A80002D913D914D915C915B976D917D918D91E3
:101A90009C910E94EF34F601208131814281538173
:101AA0000E94EF34D7016D937D938D939C93139790
:101AB0000230A1F4A40193010E94EF34F701608386
:101AC0007183828393830AC0F60180819181A28110
:101AD000B381F70180839183A283B3830F5F1F4F8C
:101AE000F4E0EF0EF11C24E0C20ED11C34E0A30E92
:101AF000B11C0330110509F0B4CF9FEA292211C1AE
:101B0000552009F45ECF6090F6057090F70580903F
:101B1000F8059090F90507E216E0E2EDCE2EE5E03B
:101B2000DE2E5E018DE0A80EB11CE12CF12CA52D5E
:101B3000B0E0B8A3AF8F8F8D98A10E2C02C0959501
:101B400087950A94E2F780FF26C0F5012081318154
:101B500042815381D6016D917D918D919C910E941E
:101B6000EF34F80120813181428153810E94EF34AA
:101B7000D8016D937D938D939C931397B2E0EB12F4
:101B800014C0A40193010E94EF34F80160837183B3
:101B9000828393830AC0F601808D918DA28DB38DCF
:101BA000F80180839183A283B383FFEFEF1AFF0ACA
:101BB0000C5F1F4F24E0C20ED11C34E0A30EB11CF9
:101BC00083E0E816F10409F0B6CFAAC09E8D9330E9
:101BD00059F4AF8DA53009F48FC0A73009F498C02F
:101BE000A33009F09DC080C0552099F34090FE05B8
:101BF0008090F6059090F705A090F805B090F90553
:101C000072EDC72E75E0D72E07E216E03E01BDE06B
:101C10006B0E711CE12CF12CE52DF0E0FEA3EDA381
:101C20008DA19EA10E2C02C0959587950A94E2F78E
:101C300080FD0BC0F60180819181A281B381F80102
:101C400080839183A283B3833EC0FF8DF730D9F1A7
:101C5000411028C0D60158962D913D914D915C912F
:101C60005B97F30160817181828193810E94F034DE
:101C7000D8012D913D914D915C910E94F034F80175
:101C80006083718382839383F2E0EF121CC0A5010D
:101C900094010E94F034D8016D937D938D939C93B1
:101CA000139711C0F6012081318142815381D801FF
:101CB0006D917D918D919C910E94F034F80160832B
:101CC000718382839383FFEFEF1AFF0A24E0C20E31
:101CD000D11C0C5F1F4F34E0630E711C83E0E816CB
:101CE000F10409F09DCF75CF511001C01E8EBE01C9
:101CF0006F5F7F4F86E007C0511001C01E8EBE018E
:101D00006F5F7F4F87E00E94A422811109C089C4C0
:101D10008091FB05823020F00E9498138EE1EFC481
:101D20001F8E1091FB05183059F4552009F4C3C1DA
:101D3000AE8DA13009F449C20E9498138FE1DFC42F
:101D4000BE8DB23009F0B7C11123F1F020E030E0D0
:101D5000A901609105067091060680910706909191
:101D600008060E94C935811104C00E94981386E1BB
:101D7000C6C4143028F4123058F4113029F025C2AA
:101D8000183008F457C121C251101FC21E8E96C1CF
:101D9000552009F416CEFFA1EF2FF0E0FEA3EDA32E
:101DA00038A5232F30E03BA72AA781E090E03C0133
:101DB00008A402C0660C771C0A94E2F70FA002C0C8
:101DC000880F991F0A94E2F7682A792A852D90E0F6
:101DD00086219721892B21F40E94981380E28FC4D9
:101DE0008DA19EA1880F991F880F991FFC01E650B5
:101DF000FA4FDC01A554BA4F57962D913D914D9164
:101E00005C915A9765A576A587A590A90E94EF34A5
:101E10006B017C018AA59BA5880F991F880F991FCC
:101E2000FC01E650FA4FDC01A554BA4F57962D91AC
:101E30003D914D915C915A9765A576A587A590A98E
:101E40000E94EF344B015C0127FE40C0E89427F864
:101E500020912706309128064091290650912A06A4
:101E60006091D2057091D3058091D4059091D505EC
:101E70000E94C9358111EDC320912B0630912C06AB
:101E800040912D0650912E066091D6057091D70590
:101E90008091D8059091D9050E94C9358111D9C387
:101EA00020912F0630913006409131065091320634
:101EB0006091DA057091DB058091DC059091DD057C
:101EC0000E94C935882309F49FC0C3C3F9A14F2ECE
:101ED000512C64207520672821F40E94981383E216
:101EE0000EC421EF22228091FD05813009F45AC0F1
:101EF0000AA51BA5000F111F000F111F02501A4F3A
:101F0000D8011B962D913D914D915C911E97C50175
:101F1000B4010E94EF342B013C01ADA0BEA0AA0C7D
:101F2000BB1CAA0CBB1CF501E250FA4F5F012385D4
:101F3000348545855685C701B6010E94EF34A3015B
:101F400092010E94B8296B017C01D8011B962D914A
:101F50003D914D915C911E97F50163857485858552
:101F600096850E94B8294B015C0160931E06709310
:101F70001F0680932006909321069B01AC01C701A8
:101F8000B6010E94EF346B017C01E894F7F82AE077
:101F900037ED43EA5BE3C701B6010E94CC37181660
:101FA0004CF113C189E0682E86E0782E00E010E045
:101FB000C201002E02C0959587950A94E2F780FF32
:101FC00010C023E333E34BEC51E4D3016D917D91D9
:101FD0008D919C910E940738F30160837183828305
:101FE00093830F5F1F4FF4E06F0E711C03301105D8
:101FF000F9F67ECF20E030E040E05FE3C701B601B4
:102000000E94CC37181624F40E94981381E277C3FB
:102010002FE632E143E85AE3C501B4010E940738D4
:102020009B01AC01C701B6010E94CC3718160CF019
:10203000CCC0EACF552009F4C4CC209127063091BA
:1020400028064091290650912A066091D205709188
:10205000D3058091D4059091D5050E94C935811191
:10206000B4C020912B0630912C0640912D06509142
:102070002E066091D6057091D7058091D805909174
:10208000D9050E94C9358111A0C020912F06309139
:10209000300640913106509132066091DA05709118
:1020A000DB058091DC059091DD050E94C935882310
:1020B00009F4AACF8AC02E8D211187C0C1018E7D5F
:1020C0009C7F86C0C301B2010E9494382B013C0161
:1020D000A5019401C701B6010E94B8299B01AC017A
:1020E000C301B20190580E94D0352B013C01809170
:1020F000FB05833021F477FA709477F8709480911F
:102100001E0690911F06A0912006B091210689A37A
:102110009AA3ABA3BCA320E030E0A901BC01CD0190
:102120000E94C93587FF11C077FA709477F87094D0
:1021300089A19AA1ABA1BCA1B05880931E0690932F
:102140001F06A0932006B09321060DA11EA1000F2B
:10215000111F000F111F02501A4FA3019201C50158
:10216000B4010E9407389B01AC01C701B6010E946F
:10217000EF3420E030E040E05FE30E940738D80110
:102180001B966D937D938D939C931E970AA51BA51B
:10219000000F111F000F111F02501A4FA3019201CF
:1021A000C701B6010E9407389B01AC01C501B4010B
:1021B0000E94F03420E030E040E05FE30E94073806
:1021C000F8016387748785879687C1018E7D907E2D
:1021D000892B21F00E94981384E291C28091160607
:1021E00090911706A0911806B09119068093CE051C
:1021F0009093CF05A093D005B093D1058091FC05B5
:102200008093BC058091050690910606A091070673
:10221000B09108068093C9059093CA05A093CB0599
:10222000B093CC05C0902206D0902306E0902406FF
:10223000F0902506A70196016091C5057091C6052D
:102240008091C7059091C8050E94C935882341F047
:10225000C092C505D092C605E092C705F092C805A8
:10226000809126068093CD05809104069091C40547
:10227000981771F04091C5055091C6056091C7054A
:102280007091C8050E94FF13809104068093C405D5
:10229000809103069091C305981731F00E94431472
:1022A000809103068093C3058091FA05813051F433
:1022B00060911A0670911B0680911C0690911D0674
:1022C0000E94BF078091FF058093BF058091FD05A7
:1022D0008093BD053E8D3330F9F4809100068093E4
:1022E000C005813089F480912F0690913006A0912D
:1022F0003106B09132068093F6059093F705A093CE
:10230000F805B093F90508C01092F6051092F7058C
:102310001092F8051092F905809101069091C1057F
:10232000981759F08093C1058CE0FE013D96AEED03
:10233000B5E001900D928A95E1F78091FE058093BA
:10234000BE058091FA0590E0FC013297E830F10576
:1023500008F05FC0E75BFF4F0C942D39BE016F5F43
:102360007F4F8F8D0E9446218091C1059F8D8913DB
:1023700050C08CE0FE013196AEEDB5E02EC0AE8DC2
:10238000AA2399F0C090C505D090C605E090C70576
:10239000F090C8050091C40520E040E050E060E8FE
:1023A0007FEB87E296E00E948004C090C505D09044
:1023B000C605E090C705F090C8050091C40520E06F
:1023C00040E050E060E87FEBCE0101960E9480047F
:1023D0008CE0FE013196A2EDB5E001900D928A9558
:1023E000E1F717C062ED75E086E003C062ED75E0CD
:1023F00087E00E9446210DC08CE0E7E2F6E0AAEEFD
:10240000B5E0EBCF8CE0EAEEF5E0DF011D928A95B6
:10241000E9F78091FB058093BB05883009F4CCC0B7
:10242000BE8DB23009F0C8C090E08830910508F048
:10243000BAC0FC01EF5AFF4F0C942D39C090C5056E
:10244000D090C605E090C705F090C8050091C4057E
:1024500020E040E050E060E87FEB14C0C090C5058C
:10246000D090C605E090C705F090C8054091C90519
:102470005091CA056091CB057091CC050091C405BF
:102480002091BC0587E296E00E9480048CC0C09039
:10249000C905D090CA05E090CB05F090CC0500911D
:1024A0001E0610911F062091200630912106809172
:1024B000C8058F938091C7058F938091C6058F9330
:1024C0008091C5058F938091C4058F9381E08F9390
:1024D000E9A5EF93F8A5FF9324C0C090C905D0905B
:1024E000CA05E090CB05F090CC0500911E06109136
:1024F0001F0620912006309121068091C8058F93F8
:102500008091C7058F938091C6058F938091C505F3
:102510008F938091C4058F931F9289A58F9398A55F
:102520009F938FA0A090BC0549E056E067E276E05B
:1025300082ED95E00E94CF040FB6F894DEBF0FBE87
:10254000CDBF31C04091C9055091CA056091CB05FE
:102550007091CC05E12C0AC04091C9055091CA0583
:102560006091CB057091CC05EE24E39400E015C09A
:102570004091C9055091CA056091CB057091CC0579
:10258000E12C0AC04091C9055091CA056091CB0564
:102590007091CC05EE24E39401E02091BC0587E224
:1025A00096E00E942E088CE0E7E2F6E0A2EDB5E0AE
:1025B00001900D928A95E1F7809102068093C20501
:1025C000882309F444C00E94EF169091C2058091BF
:1025D0009B05913069F48230C1F19FB7F8948091E6
:1025E000B80588608093B8059FBF0E9435152DC03F
:1025F00091E09093BB051092BF051092BE0510921A
:10260000BC051092C1051092C4051092C30582301A
:10261000C9F0BE01635F7F4F80E00E94A422811158
:1026200004C00E94981387E06AC08CE0FE013D96CA
:10263000AEEDB5E001900D928A95E1F70E949813F6
:102640000E94381487E00E94932E1092C20580E009
:1026500056C08091FD058130B1F423E333E34BECA8
:1026600051E460911E0670911F06809120069091A2
:1026700021060E94073860931E0670931F06809300
:1026800020069093210640901E0650901F066090F1
:1026900020067090210620E030E040E850E4C301BD
:1026A000B2010E940738A30192010E9407382B0152
:1026B0003C01A7019601C701B6010E9407389B01A2
:1026C000AC01C301B2010E94EF342B013C01A50112
:1026D0009401C501B4010E9407389B01AC01C301FC
:1026E000B2010E94EF342B013C0120E030E0A9014F
:1026F0000E94C93587FFE6CC0E94981382E2AB9610
:102700000FB6F894DEBF0FBECDBFDF91CF911F9102
:102710000F91FF90EF90DF90CF90BF90AF909F9080
:102720008F907F906F905F904F903F902F90089583
:10273000E0EBF0E080818F7780831092B300089502
:10274000239A259A0C949813CF92DF92EF92FF92DE
:102750006A017B01811106C0FF90EF90DF90CF905E
:102760000C949813813011F42D9801C02D9A83E8B0
:102770008093B0008091B100887F82608093B10027
:1027800020E030E0A901C701B6010E94C935181642
:102790001CF720E030E0A901C701B6010E94C9354D
:1027A00087FD11C020E030E04AE754E4C701B601DC
:1027B0000E94CC37181654F4C12CD12C8AE7E82E8D
:1027C00084E4F82E03C0C12CD12C76012CE53FE81F
:1027D00042E85EE3C701B6010E94073820E030E01E
:1027E00040E05FE30E94F0340E94A6360E943D362E
:1027F0006093B300FF90EF90DF90CF900895CF9358
:10280000DF9300D000D01F92CDB7DEB790919B052B
:102810009230A9F04A835B836C837D8389830E9415
:10282000EF164A815B816C817D8189810F900F90C9
:102830000F900F900F90DF91CF910C94A4130F90F5
:102840000F900F900F900F90DF91CF910895E0EBD4
:10285000F0E080818F7780832B9808958091B3007A
:10286000882329F08091B00080688093B00008959B
:10287000439808953B9A0C943814823011F4439A8B
:1028800008950C943814CF93DF931F92CDB7DEB721
:1028900090919B05923049F089830E94EF168981BF
:1028A0000F90DF91CF910C943D140F90DF91CF9159
:1028B00008959091020180910301891708F48058CE
:1028C000891B0895E0ECF0E08081826080831092A3
:1028D000C50080E18093C400E1ECF0E0808180617C
:1028E0008083808188608083808180688083089570
:1028F000E091010191E09E0F903409F490E0209165
:102900000001921305C02091B80524FFF8CF089567
:10291000F0E0ED5CF94F8083909301018091C1005C
:1029200080628093C10008951F920F920FB60F929C
:1029300011248F939F93EF93FF9380910001E82FD1
:10294000F0E0ED5CF94F90819093C6008F5F80348A
:1029500009F480E08093000190910101891305C082
:102960008091C1008F7D8093C100FF91EF919F9175
:102970008F910F900FBE0F901F90189590910201AC
:1029800080910301891761F0E92FF0E0ED58F94FCC
:1029900080819F5F903809F490E090930201089540
:1029A0008FEF08951F920F920FB60F9211242F935D
:1029B0003F934F935F936F937F938F939F93AF93C7
:1029C000BF93EF93FF938091C6008F33A9F050F42B
:1029D000883109F1813211F59FB7F8948091B805DB
:1029E000886015C0803471F08E37C1F49FB7F894B9
:1029F0008091B80582600BC09FB7F8948091B805AC
:102A0000816005C09FB7F8948091B805806280937B
:102A1000B8059FBF14C00E94DD0811C0E0910301FA
:102A200091E09E0F903809F490E0209102019217F6
:102A300031F0F0E0ED58F94F808390930301FF915E
:102A4000EF91BF91AF919F918F917F916F915F9126
:102A50004F913F912F910F900FBE0F901F9018959F
:102A600080910301809302010895EF92FF920F93EA
:102A70001F93CF93DF93D1E008E080E2F82E10E1BE
:102A800090E4E92EC091BA05CC2399F1D0939B052F
:102A9000C1FF02C081E00FC0C2FF02C082E00BC0D4
:102AA000C3FF02C083E007C0C4FF02C084E003C0CC
:102AB000C5FF03C085E00E94692E0E949813C0FDE7
:102AC00008C08FB7F8949091BA051092BA058FBFDD
:102AD00010C081E00E94932E9FB7F8948091B805B2
:102AE0008F7E8093B8059FBF8091B80584FFFCCF8F
:102AF000E8CFC091B805CC2309F4C7C0C4FF06C015
:102B00000E94981381E080939A05D7C0C0FF0AC045
:102B10000E94C6319FB7F8948091B8058E7F80934C
:102B2000B8059FBF8C2F887609F43EC00E942714F9
:102B300080919B05882349F0982F9C7769F1883014
:102B400021F40E940A1AD0939C0580919B05811163
:102B500003C092E090939C05C6FF09C0883011F431
:102B6000E0929B0580919C05886080939C05C3FF43
:102B700005C080919B0585FF10939B05C5FF0CC088
:102B800086E00E94932E80919C0581FDC460846044
:102B900080939C05F0929B059FB7F8948091B805AF
:102BA00087798093B8059FBFC1FF4BC08C2F887673
:102BB00009F03FC00E942E1480919B05882331F0BC
:102BC0008075B9F180919C0581FF33C080919C058F
:102BD00082FF1CC08091C405882371F04091C50517
:102BE0005091C6056091C7057091C8050E94A41355
:102BF00080EA9FE00E94AD298091C305882331F0CF
:102C00000E943D1488EE93E00E94AD290E944A255F
:102C1000892B59F080919C0583FD07C000939B058B
:102C20000E942C1A0E94001702C010929B0510925D
:102C30009C059FB7F8948091B8058D7F8093B80567
:102C40009FBFC2FF22C080919B05807391F080914D
:102C50009D0581110EC080919C0582FF04C00E94D9
:102C600098130E94381480919C05826080939C0583
:102C700004C010929C0510929B059FB7F894809118
:102C8000B8058B7F8093B8059FBF80919B058C779B
:102C900011F00E942C1A80919B05803251F4809192
:102CA0009C0581FF06C00E942233811102C010934F
:102CB0009B0580919C058111E5CEDF91CF911F91FD
:102CC0000F91FF90EF9008959FB7F8948091B80509
:102CD00082608093B8059FBF0895CF93DF930E94D1
:102CE000C22E80919B05813021F482E00E94932EB8
:102CF0002FC00E942233882341F08091B805806262
:102D00008093B8050E94351502C010929B0584E09F
:102D100091E00E9424331CC08D3079F0DD2399F1BD
:102D2000893221F4D13009F04CC0D0E00E94BE14A9
:102D30008F3F09F448C08A3079F7EC2FF0E0EC5F60
:102D4000FE4F10820E94351580919A05882311F05C
:102D5000C0E0EBCF80910401811103C00E941B2EC3
:102D6000F7CF843229F484E091E00E944333F6CF18
:102D700080919B05813011F489E0F0CF84E091E0EF
:102D80000E942009EBCF813288F28F3279F28832AB
:102D9000B1F08B33B1F0CF3428F08BE00E941B2EC2
:102DA000C0E0C4CF2C2F30E0CF5F9FE9980FF9012E
:102DB000EC5FFE4F9A3108F480528083B7CFD1E0A8
:102DC000B5CFD2E0B3CF0E9464160E943515809132
:102DD0009A05882309F4AACFDF91CF9108950E9424
:102DE00064160E94351580919A05811108C00E94D1
:102DF0004A25892BB1F780919B05883091F308957E
:102E00008091300782FF02C0289A01C028988091E3
:102E10009B058C70A1F08091840180939801809132
:102E200085018093970180912307880F84508195B5
:102E30008093960180916F00826080936F00089567
:102E400080916F008D7F80936F0080918100887FDB
:102E500081608093810010928301809126078F3FCB
:102E600021F49091BA05992349F090919B059430F3
:102E700029F090E00E94AD2981E001C080E09091AE
:102E8000300792FF02C091E08927882311F0289A29
:102E90000895289808951F920F920FB60F9211244B
:102EA0002F933F934F935F936F937F938F939F9352
:102EB000AF93BF93EF93FF93809183018111F9C189
:102EC0009BB180919801807E9F71892B8BB98BB1CA
:102ED000837E90919701892B8BB98091960186BD55
:102EE00082E085BD81E08093830178948091AA017E
:102EF0009091AB01892B09F0AEC08091880190912F
:102F00008701981709F49CC0E091880186E0E89F4A
:102F1000F0011124E455FE4FF093AB01E093AA01B8
:102F2000838194819093890080938800808191812E
:102F30009093A6018093A501E2818091A7018E174D
:102F400099F1E093A70186E1E89FF0011124E05395
:102F5000FE4FF093A901E093A80185859685A7858A
:102F6000B089B695A7959795879580939101909391
:102F70009201A0939301B093940180938D0190935B
:102F80008E01A0938F01B09390018093890190935B
:102F90008A01A0938B01B0938C0141895289638986
:102FA000748985890E94A413E091A801F091A90178
:102FB000809184019081892780939801A091AA0132
:102FC000B091AB0115962C9181819281A381B4813E
:102FD000022E04C0B695A795979587950A94D2F7C7
:102FE0008093990190939A01A0939B01B0939C01C7
:102FF00085819681A781B085022E04C0B695A795DC
:10300000979587950A94D2F780939D0190939E019E
:10301000A0939F01B093A00181859285A385B4857B
:1030200004C0B695A795979587952A95D2F7809372
:10303000A1019093A201A093A301B093A4010BC09E
:103040000E9420179FB7F8948091B8058460809300
:10305000B8059FBF2EC10E94022E10929701809149
:10306000990190919A01A0919B01B0919C0140918E
:10307000890150918A0160918B0170918C01840FBC
:10308000951FA61FB71F8093890190938A01A09373
:103090008B01B0938C01E091A801F091A9014585C5
:1030A000568567857089481759076A077B0768F551
:1030B00024E0209397014585568567857089841B98
:1030C000950BA60BB70B8093890190938A01A0936F
:1030D0008B01B0938C01208180919E0590919F057A
:1030E000A091A005B091A10525FF04C00197A109F9
:1030F000B10903C00196A11DB11D80939E05909357
:103100009F05A093A005B093A10580919D0190918A
:103110009E01A0919F01B091A00140918D0150911D
:103120008E0160918F0170919001840F951FA61FF1
:10313000B71F80938D0190938E01A0938F01B09360
:1031400090014585568567857089481759076A0734
:103150007B0778F52091970128602093970145859A
:10316000568567857089841B950BA60BB70B8093DA
:103170008D0190938E01A0938F01B09390012081D7
:103180008091A2059091A305A091A405B091A505F9
:1031900026FF04C00197A109B10903C00196A11D32
:1031A000B11D8093A2059093A305A093A405B093AD
:1031B000A5058091A1019091A201A091A301B091D8
:1031C000A4014091910150919201609193017091FD
:1031D0009401840F951FA61FB71F809391019093B0
:1031E0009201A0939301B09394014585568567851C
:1031F0007089481759076A077B0778F5209197016E
:103200002061209397014585568567857089841BC9
:10321000950BA60BB70B8093910190939201A0930D
:103220009301B093940120818091A6059091A70508
:10323000A091A805B091A90527FF04C00197A10995
:10324000B10903C00196A11DB11D8093A6059093FD
:10325000A705A093A805B093A90580919B0584308C
:1032600039F48091B7059091970189238093970154
:103270008091A5019091A60101979093A60180935A
:10328000A501892B69F41092AB011092AA018091DB
:1032900088018F5F80938801863011F41092880135
:1032A00080918501909197018927809397011092D1
:1032B0008301FF91EF91BF91AF919F918F917F918A
:1032C0006F915F914F913F912F910F900FBE0F9093
:1032D0001F9018951F920F920FB60F9211248F9383
:1032E0009F939BB1809185018C71937E892B8BB9C3
:1032F00015BC9F918F910F900FBE0F901F90189546
:10330000FF920F931F93CF93DF931092850110923A
:103310008401C0E0D0E00C2F1C2F2091240730E066
:103320008C2F0C2E02C0359527950A94E2F720FFCA
:1033300007C0F09085010E94EC238F2980938501BE
:103340002091250730E002C0359527951A95E2F7C0
:1033500020FF08C010918401802F0E94F623812B4A
:10336000809384012196C330D105A9F6DF91CF91D6
:103370001F910F91FF9008950E9420178BE2E4E5C2
:10338000F1E0DF011D928A95E9F783E2E9E8F1E0D7
:10339000DF011D928A95E9F7109282011092810156
:1033A000109288011092870181E08093860110922B
:1033B00083010E9480198BB1837E90918501892BB6
:1033C0008BB98BB18F7190918401892B8BB9089542
:1033D0008AB18C618AB9209A8AB1806E8AB9E1E893
:1033E000F0E080818F7E8083808188608083E0E848
:1033F000F0E080818C7F808380818F708083EEE617
:10340000F0E08081887F808314BC15BC808181605E
:1034100080830895CF93DF93C0918101D091820181
:103420002097B9F081E08093550160916B01709114
:103430006C0180916D0190916E019B01AC010E9425
:103440000738698B7A8B8B8B9C8B10928201109240
:103450008101DF91CF9108952F923F924F925F9219
:103460006F927F928F929F92AF92BF92CF92DF9294
:10347000EF92FF920F931F93CF93DF93CDB7DEB7F9
:10348000E5970FB6F894DEBF0FBECDBF80919B05C8
:10349000807709F40AC220E030E0A90160916B0155
:1034A00070916C0180916D0190916E010E94C935FF
:1034B0008111FBC115C68091810190918201892BF8
:1034C00009F4FAC180918701F6E0F89FF001112418
:1034D000E455FE4FFE83ED83809154018283209159
:1034E0008101309182013E872D87D9019596BC914B
:1034F000BCA7F901F6A1FDA7D9019796BC91BEA77B
:10350000F901F0A5FFA720915E0130915F01409184
:103510006001509161016CA57DA58B2F9F2F0E94AA
:10352000EF3468A779A78AA79BA720E030E0A9011C
:103530000E94C93587FF04C018A619A61AA61BA6A3
:1035400020917701288F30917801398F409179014E
:103550004A8F50917A015B8F80916F018C8F90918F
:1035600070019D8FA0917101AE8FB0917201BF8FDC
:10357000E0917B01E8A3F0917C01F9A320917D010A
:103580002AA330917E013BA3409167014CA3509147
:1035900068015DA3809169018EA390916A019FA348
:1035A0002091730130917401409175015091760121
:1035B00028AB39AB4AAB5BAB30916B01398340919F
:1035C0006C01498720906D0130906E015091660129
:1035D0005F878CA58C8B9DA59D8BAEA5AE8BBFA563
:1035E000BF8B3EE3C32E33ECD32E3EE2E32E39E312
:1035F000F32E188A198A1A8A1B8A26013701EF8549
:10360000E111C6C3AD85BE8591962D913D914D9139
:103610005C919497C701B6010E9407384B015C0189
:1036200020E030E040E05FE30E9407389B01AC01FE
:1036300069817985C1010E94F0349B01AC01C70109
:10364000B6010E9407389B01AC016C897D898E8987
:103650009F890E94EF348B018DAB9CAB288D398DF7
:103660004A8D5B8D0E94C93587FF98C3288D398D9F
:103670004A8D5B8D6CA57DA58EA59FA50E94EF341C
:103680009B01AC010E94F0346B017C012C8D3D8DBF
:103690004E8D5F8D69817985C1010E94F0349B0157
:1036A000AC01C701B6010E94D0356B017C0128A195
:1036B00039A14AA15BA1688D798D8A8D9B8D0E946D
:1036C000C935882309F467C3B1E0BF87FC8DF9834E
:1036D0002D8D29872E8C3F8C088D198D3A8D3DAB11
:1036E0004B8D4CABA7019601688979898A899B89A2
:1036F0000E94F034688B798B8A8B9B8BA30192019B
:103700000E94C93587FD04C428A539A54AA55BA533
:10371000B8018DA99CA90E94CC3718160CF4EEC3F1
:1037200089819985D10180936B0190936C01A0935D
:103730006D01B0936E01FF85F093660140905A01D0
:1037400050905B0160905C0170905D0198014DA903
:103750005CA9C301B2010E94073869837A838B8315
:103760009C830E94B6356B017C016091560170917B
:10377000570180915801909159010E94B6354B0133
:103780005C01A70196010E94EF340E943D366987D3
:103790007A878B879C87E985FA85AD81BE81ED9319
:1037A000FC93309709F4DFC32091620130916301EB
:1037B0004091640150916501688979898A899B8962
:1037C0000E94F0342B013C0129813A814B815C81BC
:1037D000C501B4010E94EF349B01AC01C301B201E9
:1037E0000E94D0354B015C0129813A814B815C817B
:1037F000C701B6010E94EF34A50194010E94073869
:1038000060936201709363018093640190936501FA
:1038100020EC31EE44E65EE4C501B4010E940738B5
:103820000E94B6350E943D36603DB7E07B078105BA
:10383000910508F0BEC3ED81FE811582AD81BE8188
:1038400014967C936E9313978091860180938701E1
:103850008F5F863009F4E6C380938601209167016B
:10386000309168014091690150916A01B8018DA9B8
:103870009CA90E94CC3718160CF0D7C3E0918101A7
:10388000F0918201C801ADA9BCA985A396A3A7A305
:10389000B0A789819A81AB81BC81809356019093B6
:1038A0005701A0935801B0935901909188018091DC
:1038B0008601981300CE14C40E944A251C019093DF
:1038C000820180938101009709F40AC48091550117
:1038D00010919B05882319F010925501D0C080915A
:1038E00054018F5F853019F08093540102C010920B
:1038F0005401E091540126E12E9FF0011124E05380
:10390000FE4FF0938001E0937F01D1018C91808381
:1039100011964D915D916D917C91149703E0440F48
:10392000551F661F771F0A95D1F741835283638322
:10393000748315964D915D916D917C91189783E0FC
:10394000440F551F661F771F8A95D1F7458356830D
:103950006783708719964D915D916D917C911C974D
:1039600093E0440F551F661F771F9A95D1F7418743
:103970005287638774871D964D915D916D917C91FF
:10398000509723E0440F551F661F771F2A95D1F7E4
:10399000458756876787708B99968C919997858B09
:1039A0009A964D915D916D917C919D97418B528B33
:1039B000638B748B1D966D917D918D919C91509729
:1039C0000E946936609356017093570180935801A5
:1039D00090935901F10125A136A147A150A50E945C
:1039E000D0359B01AC0160935A0170935B018093C9
:1039F0005C0190935D0160E070E080EA9FE30E94CB
:103A0000D03560935E0170935F0180936001909365
:103A10006101109262011092630110926401109290
:103A20006501812F8077E1F06091730170917401DD
:103A3000809175019091760160936B0170936C0198
:103A400080936D0190936E019B01AC010E94073839
:103A5000D10151966D937D938D939C9354970FC094
:103A6000F10161897289838994890E9494386093F5
:103A70006B0170936C0180936D0190936E011092B5
:103A80006701109268011092690110926A01D101D8
:103A900091968D909D90AD90BC909497A5019401C6
:103AA00060E070E080E09FE30E94D0352B013C0194
:103AB0001077F101C5A0D6A0E7A0F0A4112309F466
:103AC0004DC0F2E0F0936601D10151962D913D91E8
:103AD0004D915C9154972D833E834F8358870E946C
:103AE00007389B01AC01C701B6010E94EF342B01DE
:103AF0003C0120E030E0A9010E94C93587FF1DC0CC
:103B0000A5019401C501B4010E94F034A7019601FA
:103B10000E9407389B01AC016D817E818F81988561
:103B20000E94EF340E949438609373017093740183
:103B30008093750190937601C5CC409267015092B5
:103B400068016092690170926A011092730110928B
:103B500074011092750110927601B4CC1092660136
:103B6000C0927701D0927801E0927901F0927A01C7
:103B70000E945A254B015C0160937301709374019C
:103B800080937501909376019B01AC010E940738E8
:103B900069837A838B839C830091810110918201D8
:103BA000D80195962D913D914D915C9198972987DB
:103BB0003A874B875C8751962D913D914D915C9151
:103BC00054972D833E834F8358879B01AC016D81B1
:103BD0007E818F8198850E94EF349B01AC01C301E7
:103BE000B2010E9407389B01AC0169857A858B85FB
:103BF0009C850E94F03420E030E040E05FE30E94CA
:103C000007386B017C0120E030E0A9010E94CC372D
:103C100018160CF0ACC029853A854B855C85C70128
:103C2000B6010E94C93587FF8EC0F801858C968C3D
:103C3000A78CB0A029813A814B815C81C501B40178
:103C40000E94EF349B01AC01C301B2010E9407380E
:103C500060937B0170937C0180937D0190937E0142
:103C6000A70196010E94C93587FF3DC0C501B40177
:103C70000E94943860936F0170937001809371017A
:103C800090937201A50194016D817E818F81988549
:103C90000E94C935811104C0F1E0F093660112CC95
:103CA0002D813E814F815885C501B4010E94EF34BA
:103CB0009B01AC01C301B2010E9407389B01AC011A
:103CC00060917701709178018091790190917A01EA
:103CD0000E94EF34609377017093780180937901AB
:103CE00090937A01EFCBC0927701D0927801E09265
:103CF0007901F0927A01C0927B01D0927C01E0922E
:103D00007D01F0927E01D80191966D917D918D910A
:103D10009C9194979B01AC010E94F034A7019601FD
:103D20000E94073829813A814B815C810E94F034DE
:103D30000E94943860936F017093700180937101B9
:103D400090937201BFCBB2E0B093660180916B019A
:103D500090916C01A0916D01B0916E0180936F0103
:103D600090937001A0937101B0937201ABCB10924C
:103D70007701109278011092790110927A01809265
:103D80006F0190927001A0927101B09272019ACB72
:103D9000E13061F041C0E2E0EF8798CCA5019401E9
:103DA00069817985C1010E94F0347CC0A701960128
:103DB0006C8D7D8D8E8D9F8D0E9407389B01AC018F
:103DC0006C897D898E899F890E94EF348B018DAB30
:103DD0009CAB28A139A14AA15BA10E94C93587FFEC
:103DE00081CC28A139A14AA15BA16C897D898E89EA
:103DF0009F890E94EF342C8D3D8D4E8D5F8D0E94EA
:103E0000D0356B017C0108A119A15AA15DAB8BA132
:103E10008CAB92E09F8766CCAD85BE8591962D9147
:103E20003D914D915C919497C701B6010E9407386E
:103E30004B015C019B01AC0169817985C1010E9444
:103E4000CC3718169CF520E030E040E05FE3C50178
:103E5000B4010E9407389B01AC0169817985C101D9
:103E60000E94EF349B01AC01C701B6010E940738E4
:103E70009B01AC016C897D898E899F890E94EF34FA
:103E80008B018DAB9CAB2CA13DA14EA15FA10E94EB
:103E9000CC3718165CF4A501940169817985C101BC
:103EA0000E94EF34698379871C011CCC2CA13DA1B1
:103EB0004EA15FA16C897D898E899F890E94EF3414
:103EC0009B01AC010E94F0346B017C0128A939A947
:103ED0004AA95BA969817985C1010E94F0349B01DF
:103EE000AC01C701B6010E94D0356B017C010CA169
:103EF0001DA1BEA1BDABEFA1ECABF4CB2EE333EC27
:103F00004EE259E3C301B2010E94F0342B013C019F
:103F1000288939894A895B89C301B2010E94EF343B
:103F20006B017C012CA13DA14EA15FA1B8018DA91F
:103F30009CA90E94CC3718167CF089819985D10103
:103F400080936B0190936C01A0936D01B0936E010F
:103F50003F8530936601F2CB0C8B1D8B4DA94E8BA8
:103F60005CA95F8B4CCB80919B05807709F41CCCBE
:103F700010926B0110926C0110926D0110926E0103
:103F80001092620110926301109264011092650117
:103F9000C0925601D0925701E0925801F092590117
:103FA000A3019201C701B6010E94D035AD85BE853F
:103FB00070C0603AFFE07F078105910510F4E1E0F1
:103FC00009C06034FFE17F078105910510F4E2E04C
:103FD00001C0E3E0AD81BE811596EC93AD81BE8159
:103FE00015962C911597022E04C096958795779576
:103FF00067950A94D2F7E985FA8502C0EE0FFF1F94
:104000002A95E2F7ED93FC9361157105F1E08F07B6
:10401000910508F413CC2FEF3FEFED81FE8134833F
:10402000238312CC1092860119CC20E030E0A90144
:10403000B8018DA99CA90E94CC3718160CF049C074
:1040400010926B0110926C0110926D0110926E0132
:104050001092620110926301109264011092650146
:10406000C0925601D0925701E0925801F092590146
:10407000009181011091820120915A0130915B01E0
:1040800040915C0150915D01C701B6010E94D0359D
:10409000D80195966D937D938D939C939897E59613
:1040A0000FB6F894DEBF0FBECDBFDF91CF911F9149
:1040B0000F91FF90EF90DF90CF90BF90AF909F90C7
:1040C0008F907F906F905F904F903F902F900C94C7
:1040D000F32810928201109281010E943625E5CBCF
:1040E000E5960FB6F894DEBF0FBECDBFDF91CF913E
:1040F0001F910F91FF90EF90DF90CF90BF90AF9006
:104100009F908F907F906F905F904F903F902F90F7
:104110000895F999FECF92BD81BD81E08FBB80B536
:104120000895F894F999FECF92BD81BD81E08FBBCF
:1041300040B54627842F992787FD9095262F30E09C
:1041400082239323892B39F06F3F19F060BD84E0FF
:1041500006C084E104C0442321F060BD84E28FBB2B
:10416000F99A789408959F92AF92BF92CF92DF927E
:10417000EF92FF920F931F93CF93DF938C017A01FD
:104180006B01C40ED51EEB01912C5C01A61AB70A77
:10419000CE018A0D9B1DCC15DD0591F0911009C053
:1041A000692D772767FD7095272F221F2227221F51
:1041B00001C021E06991922E960E0E949120E8CFD5
:1041C000692DC8018E0D9F1DDF91CF911F910F9119
:1041D000FF90EF90DF90CF90BF90AF909F900C94A6
:1041E00091209F92AF92BF92CF92DF92EF92FF9277
:1041F0000F931F93CF93DF938B017A016C01C40E51
:10420000D51EEC01912C5B01A81AB90AC5018C0FCF
:104210009D1FCC15DD0591F00E948920911009C0E9
:10422000292D332727FD3095232F221F2227221FD8
:1042300001C021E0922E980E8993E8CFC8018E0D1F
:104240009F1D0E94892021E030E0981611F020E0A7
:1042500030E0C901DF91CF911F910F91FF90EF9056
:10426000DF90CF90BF90AF909F90089521E5829FFF
:10427000C001112440E550E09D5F0C94B32040E55F
:1042800050E0BC018EEA93E00C94B3202DE0829FB5
:10429000C00111244CE050E09E5F0C94B32069E013
:1042A00080E090E00E9491204DE450E063EF76E0E2
:1042B00081E090E00C94B320EF92FF920F931F9354
:1042C000CF93DF93CDB7DEB72C970FB6F894DEBF50
:1042D0000FBECDBF182F80FFD3C08AE08093230785
:1042E00089E1809326071092240781E080932507B7
:1042F00023E0209327078AE097EDA3EABCE38093AD
:10430000280790932907A0932A07B0932B078FE6DD
:1043100092E1A3E0BBE380932C0790932D07A09339
:104320002E07B0932F072093310780E090E0A8EC90
:10433000B1E48093320790933307A0933407B0938E
:10434000350780E090E0AAEFB4E4809336079093BD
:104350003707A0933807B093390784E690E090932D
:104360003B0780933A0780E090E0A0E8BFE38093AA
:104370003C0790933D07A0933E07B0933F0780E32F
:104380008093300740E050E068EC72E44093F3061D
:104390005093F4066093F5067093F6064093F70683
:1043A0005093F8066093F9067093FA064093FB0663
:1043B0005093FC066093FD067093FE0640E050E4C7
:1043C0006CE975E44093FF06509300076093010782
:1043D0007093020740930307509304076093050707
:1043E00070930607409307075093080760930907E7
:1043F00070930A0740E05FEC69E17AE440930B07B1
:1044000050930C0760930D0770930E0740930F07AE
:1044100050931007609311077093120780E098EC97
:10442000AFEAB8E48093130790931407A09315079D
:10443000B093160780E090E0ABE5B3EC80931707EC
:1044400090931807A0931907B0931A0780E090E0A3
:10445000A6E9B3EC80931B0790931C07A0931D075C
:10446000B0931E0780E090E0A0E2B1EC80931F07BC
:1044700090932007A0932107B09322070E944F2119
:1044800011FF10C0CE0101967C018CE0F701119262
:104490008A95E9F700E0B701802F0E9446210F5F5F
:1044A0000830C9F712FF0AC060E080E093E00E9484
:1044B000912060E081E593E00E94912013FF05C008
:1044C00060E08EEA93E00E9491202C960FB6F8945B
:1044D000DEBF0FBECDBFDF91CF911F910F91FF9037
:1044E000EF9008951F93CF93DF93182FEB0181E591
:1044F000189FB00111247D5F40E550E0CE010E947D
:10450000F120892B39F41882BE01812F0E943621B7
:1045100080E001C081E0DF91CF911F910895CF939A
:10452000DF93EC0140E550E06EEA73E00E94F12079
:10453000892B31F41882CE010E943F2180E001C016
:1045400081E0DF91CF9108951F93CF93DF93182FD0
:10455000EB018DE0189FB00111247E5F4CE050E02C
:10456000CE010E94F120892B59F48CE0FE011192BA
:104570008A95E9F7BE01812F0E94462180E001C0A3
:1045800081E0DF91CF911F91089580E090E00E943B
:104590008920893059F44DE450E061E070E083EF08
:1045A00096E00E94F12021E0892B09F420E0822F7F
:1045B0000895CF92DF92EF92FF92CF93DF93C82FAF
:1045C0006A017B0120E030E0A901C701B6010E9429
:1045D000C93587FDE6C0C43608F445C02CE92C0F68
:1045E00080E02330B8F530E0823079F0F901EE0F49
:1045F000FF1FEE0FFF1F833011F1813019F0ED50D6
:10460000F94F23C0E150F94F20C0E901CC0FDD1F65
:10461000CC0FDD1FC55FD84F20E030E040E752E40B
:10462000C701B6010E94073820E030E040E752E4BD
:104630000E940738688379838A839B83AEC0E95ED2
:10464000F84FF7FAF094F7F8F094C082D182E28242
:10465000F382A3C08F5F2A3008F4A5C0843009F428
:10466000A2C02A50BECFC701B6010E94D5380E9411
:104670003D368C2F90E08C31910508F094C0FC0100
:10468000E75AFF4F0C942D39633008F48EC06093C5
:10469000230783C06093260780C06093240702C06D
:1046A000609325070E94801978C0809130076623A7
:1046B00011F0846007C08B7F05C0809130076623AE
:1046C00021F080648093300768C08F7BFBCF80919E
:1046D0003007662311F08068F5CF8F77F3CF6093B2
:1046E00027075BC0C0922807D0922907E0922A07CB
:1046F000F0922B0752C0C0922C07D0922D07E09267
:104700002E07F0922F0749C080913007662311F0E1
:104710008160D8CF8E7FD6CF80913007662321F07D
:1047200084FF45C08062CECF8F7DCCCF8091300793
:10473000662311F0886001C0877F809330070E9454
:10474000E9292BC080913007662311F08061BACF30
:104750008F7CB8CF6093310720C0C0923207D092CF
:104760003307E0923407F092350717C0C09236073E
:10477000D0923707E0923807F09239070EC070E008
:1047800070933B0760933A0708C0C0923C07D092F1
:104790003D07E0923E07F0923F070E944F2180E0E4
:1047A00007C084E005C083E003C086E001C08AE062
:1047B000DF91CF91FF90EF90DF90CF9008950E940E
:1047C000C522811108C087E00E941B2E8FEF0E9436
:1047D0005C210C94CA2E0895882321F0813021F4A5
:1047E00088E0089584E0089580E10895882321F009
:1047F000813021F480E4089580E2089580E80895EE
:10480000882321F0813021F484E0089582E0089526
:1048100080E108954F925F926F927F928F929F9264
:10482000AF92BF92CF92DF92EF92FF920F931F93BE
:10483000CF93DF9310915C02111101C012E111506E
:1048400000915A02101709F4EFC08EE2189FE001A0
:104850001124C25ADD4F8D889E88AF88B88C69A11B
:104860007AA18BA19CA19B01AC010E94F0342DA1E7
:104870003EA14FA158A50E9407386B017C019B0106
:10488000AC01B401C5010E94C93587FF02C06401B3
:104890007501A601B701498B5A8B6B8B7C8B11116B
:1048A00001C012E177247A94710E701619F02EE28D
:1048B000622E27C080915D02081351C00E940A1A1F
:1048C0004EC0679C80011124025A1D4F711002C016
:1048D00092E1792E7A9480915D02781202C00E9452
:1048E0000A1AF801C588D688E788F08CA7019601D6
:1048F00061897289838994890E94C935811106C0B2
:10490000E80180915A027812DCCF29C0F80161A138
:1049100072A183A194A19B01AC010E94F034F80123
:1049200025A136A147A150A50E94073829893A89B7
:104930004B895C890E94F0344B015C01A701960110
:104940000E94C935F80187FF05C0818A928AA38A2F
:10495000B48AD6CFC18AD28AE38AF48AD1CF609052
:104960005A02FEE26F9E80011124025A1D4F7724E5
:104970007394760C82E1781201C0712C50905C0225
:104980008EE2482E751409F44DC0479CE0011124B5
:10499000C25ADD4FF80181889288A388B488C988FB
:1049A000DA88EB88FC88A7019601C501B4010E9452
:1049B000C93587FF23C0F80161A172A183A194A129
:1049C0009B01AC010E94F034F80125A136A147A15A
:1049D00050A50E9407389B01AC01C501B4010E949B
:1049E000F0344B015C01A70196010E94C93587FF95
:1049F00005C0898A9A8AAB8ABC8A672C2D893E8930
:104A00004F89588D69897A898B899C890E94C9351B
:104A1000811101C0672C7394F2E17F1201C0712CE7
:104A20008E01B0CF60925A02DF91CF911F910F910A
:104A3000FF90EF90DF90CF90BF90AF909F908F90BE
:104A40007F906F905F904F9008958CE1EEE3F2E0DD
:104A5000DF011D928A95E9F710925D0210925C02C7
:104A600081E080935B0210925A02089590915D025A
:104A700080915C02891769F081E0890F823109F425
:104A800080E020915A02921302C080935A028093D0
:104A90005D02089580915D0290915C02981739F053
:104AA0002EE2829FC0011124825A9D4F089580E01A
:104AB00090E00895E0915D02EF5FE23109F4E0E0FB
:104AC00080915C02E81761F08EE2E89FF00111240A
:104AD000E25AFD4F61897289838994890C949438D4
:104AE00060E070E0CB01089581E020915D0290913B
:104AF0005B02291380E008952F923F924F925F92BC
:104B00006F927F928F929F92AF92BF92CF92DF92DD
:104B1000EF92FF920F931F93CF93DF93CDB7DEB742
:104B2000E0970FB6F894DEBF0FBECDBF142F5B8F9A
:104B30006C8F7D8F28A70FA720915C023EE2239FF8
:104B400010011124D101A25ABD4F1D01FD0115868E
:104B500016861786108A95961D921D921D921C929C
:104B600098971C9249E956E766E97EE741A352A36C
:104B700063A374A39DA38CA333EF832E36E0932EFF
:104B80009E01235F3F4F3BA32AA38EE392E09F8FBA
:104B90008E8F5D01DE011196BFA3AEA300E0ECA1F4
:104BA000FDA16191719181919191FDA3ECA3D4013B
:104BB0002D913D914D915C910E9407380E94D7370D
:104BC000EAA1FBA16193719381939193FBA3EAA363
:104BD000AE8DBF8D4D905D906D907D90BF8FAE8FEF
:104BE00064197509860997092B013C0197FF07C0D5
:104BF000442455243201461A570A680A790AF501F5
:104C00004182528263827482D1011D962D913D9121
:104C10004D915C915097421653066406750610F448
:104C200029013A01F101458656866786708A0E94FD
:104C30006B36D4012D913D914D915C910E94D03500
:104C40002B013C01EEA1FFA161937193819391939C
:104C5000FFA3EEA320E030E0A9010E94C93587FF41
:104C60000AC0D1019C91802F98AB0E94F62398A98D
:104C7000892BF1018083A3019201C301B2010E943B
:104C80000738D10195962D913D914D915C91989762
:104C90000E94F034F10165A376A387A390A70F5F6C
:104CA000F4E08F0E911C24E0A20EB11C033009F039
:104CB00076CF0E9494384B015C01D10195966D939B
:104CC0007D938D939C9398971D968D919D910D90BA
:104CD000BC91A02D892B8A2B8B2B09F431C220E0AB
:104CE00030E0A901612F7B8D8C8D9D8D0E94C9358F
:104CF00087FD22C0B8A5BB2361F0A5019401612FF7
:104D00007B8D8C8D9D8D0E940738162F7B8F8C8F0D
:104D10009D8F20E030E040E85FE3612F7B8D8C8D3C
:104D20009D8D0E94C93587FF0EC010E01B8E30E8B4
:104D30003C8F8FE38D8F07C019E9E6E7EB8FF6E92B
:104D4000FC8F2EE72D8FA501940160E070E080E8D4
:104D50009FE30E94D0356BA77CA78DA79EA7AAE4EE
:104D6000B2E0BFA3AEA3EFEFF6E0FDA3ECA39E017C
:104D7000235F3F4F3A8F298FCE0101969BA38AA3D1
:104D80001E8E1F8E18A219A2AAA1BBA18D909D9064
:104D9000AD90BC9020E030E0A901C501B4010E94B3
:104DA000C935882309F48CC02BA53CA54DA55EA56B
:104DB000C501B4010E9407384B015C01EAA1FBA1C7
:104DC00060837183828393839B01AC0160E070E018
:104DD00080E89FE30E94D0352B013C01E89477F8EE
:104DE000ACA1BDA12D913D914D915C91C301B2014A
:104DF0000E94073868A779A78AA7092F9B01482F27
:104E0000592F612F7B8D8C8D9D8D0E94C93587FF19
:104E100006C018A7BB8DB9A7EC8DEAA70D8DD101EF
:104E200091961C9191979296BC91BB8FF101F3A141
:104E3000FC8FD1019496BC91BD8FECA1FDA124857E
:104E4000358546855785C301B2010E940738762E05
:104E5000672E582E492E262F372F482F592F612F76
:104E60007B8D8C8D9D8D0E94C93587FF04C0712E6E
:104E70006B8C5C8C4D8C872D962DA52DB42DF1015E
:104E800081A392A3A3A3B4A3AEA1BFA12D913D91F1
:104E90004D915C91C501B4010E9407389B01AC01A2
:104EA0006E8D7F8D88A199A10E94EF346E8F7F8FC8
:104EB00088A399A318A5B9A5BB8FEAA5EC8F0D8F80
:104EC0002AA13BA12C5F3F4F3BA32AA38EA19FA108
:104ED00004969FA38EA3ACA1BDA11496BDA3ACA3C1
:104EE000E98DFA8D2E173F0709F04ECF90915C02A5
:104EF00080915D0298130DC0D10151961D921D92B3
:104F00001D921C925497F101118E128E138E148EE5
:104F10007DC02FEE3FEF4FE75FE36E8D7F8D88A161
:104F200099A10E94CC37181644F4D10159961D92CC
:104F30001D921D921C925C9769C02FEE3FEF4FE7C8
:104F40005FEB6E8D7F8D88A199A10E94CC371816DA
:104F500044F08FEE9FEFAFE7BFEB8E8F9F8FA8A33C
:104F6000B9A32E8D3F8D48A159A160E070E080E883
:104F70009FE30E94EF3420E030E040E05FE30E94D6
:104F800007380E9494382B013C012091280730916A
:104F9000290740912A0750912B07D10191966D91D5
:104FA0007D918D919C9194970E940738A301920165
:104FB0000E9407384B015C01A301920160E070E0A0
:104FC00080E89FE30E94EF349B01AC01C501B4016E
:104FD0000E94D035962EA72EB82E092F20E030E063
:104FE000A9010E94C93587FF05C040E030E020E0FC
:104FF00000E003C0492D3A2D2B2D842F932FA22F93
:10500000B02FF101818F928FA38FB48FEFA5D101C3
:105010009996EC9399979A96CD92DD92ED92FC92A7
:105020009D97212F3B8D4C8D5D8D612F7B8D8C8DC0
:105030009D8D0E940738162F072FF82EE92E862FF8
:10504000902FAF2DBE2DF101858F968FA78FB0A326
:10505000A18CB28CC38CD48C609056027090570295
:1050600080905802909059029301A401612F702FF3
:105070008F2D9E2D0E94C93587FD0BC09301A40181
:10508000B501C6010E94C93587FD11C053016401F5
:105090000EC0212F302F4F2D5E2DB501C6010E946D
:1050A000C93587FD04C0A12EB02ECF2CDE2CC50142
:1050B000D601F101858B968BA78BB08F8CE0FE011A
:1050C0003196AAE4B2E001900D928A95E1F7812F22
:1050D000902FAF2DBE2D8093560290935702A09330
:1050E0005802B09359028CE0FE013D96AEE3B2E067
:1050F00001900D928A95E1F780915B0280935C02AA
:105100008F5F823109F480E080935B02E0960FB6F6
:10511000F894DEBF0FBECDBFDF91CF911F910F91ED
:10512000FF90EF90DF90CF90BF90AF909F908F90C7
:105130007F906F905F904F903F902F900C940A2437
:10514000E0960FB6F894DEBF0FBECDBFDF91CF91D2
:105150001F910F91FF90EF90DF90CF90BF90AF9095
:105160009F908F907F906F905F904F903F902F9087
:10517000089580919E0590919F05A091A005B09102
:10518000A10580933E0290933F02A0934002B0930A
:1051900041028091A2059091A305A091A405B09130
:1051A000A5058093420290934302A0934402B093DA
:1051B00045028091A6059091A705A091A805B09100
:1051C000A9058093460290934702A0934802B093AA
:1051D0004902089580915C0290915D02891708F45C
:1051E0008E5E891B08950E940A1A80915D02809349
:1051F0005A020C940A246F927F928F929F92AF92E0
:10520000BF92CF92DF92EF92FF920F931F93CF93B3
:10521000DF937C018B016A01FB018081F701E80FBC
:10522000F11D2081EF012D3229F42296218166247F
:10523000639407C02B3211F0219602C0229621817F
:10524000612CA12CB12C712C60E070E0CB01FE012F
:1052500030ED932E920E29E02915C8F0B39428E082
:105260002B1588F0A1107A94A5E0B0E09B01AC0169
:105270000E94F438660F771F881F991F690D711DF2
:10528000811D911D0BC0A11009C0739407C02EEFA2
:10529000921207C0A11005C0AA24A39421962081D0
:1052A000D6CFBB2009F449C00E9469364B015C018E
:1052B00020E030E0A9010E94C935882361F18FEF19
:1052C00078166CF42AE037ED43E25CE3C501B401E3
:1052D0000E9407384B015C0173947394F0CF7812ED
:1052E0000BC02DEC3CEC4CEC5DE3C501B4010E941D
:1052F00007384B015C010FC0772069F020E030E0F7
:1053000040E251E4C501B4010E9407384B015C0141
:105310007A9417149CF3662021F0B7FAB094B7F88A
:10532000B094F60180829182A282B382CE19DF0905
:10533000C150F801C08381E001C080E0DF91CF91CE
:105340001F910F91FF90EF90DF90CF90BF90AF90A3
:105350009F908F907F906F900895009741F0EFE9B4
:10536000FFE03197F1F700C000000197F6CF0895F4
:105370008F929F92AF92BF92CF92DF92EF92FF9265
:1053800069017A019B01AC010E9407384B015C0165
:10539000A7019601C701B6010E9407389B01AC0125
:1053A000C501B4010E94F034FF90EF90DF90CF90E0
:1053B000BF90AF909F908F900C949438EBE6F0E004
:1053C0008081897E8083E8E6F0E080818E7F808323
:1053D000089584B1897E84B985B1866185B980914B
:1053E000300783FF0BC080916B00866180936B0058
:1053F0008091680081608093680008950C94DE2994
:10540000CF92DF92FF920F931F93CF93DF931F9260
:10541000CDB7DEB793B196718091300786FD02C09B
:1054200086E198279923D9F0C12CD12CF12C01E0E9
:1054300010E08C2D99830E9400249981892339F0F2
:1054400098010C2C01C0220F0A94EAF7F22A8FEF80
:10545000C81AD80AE3E0CE16D10459F701C0F12CDE
:105460008F2D0F90DF91CF911F910F91FF90DF90C3
:10547000CF9008951F920F920FB60F9211242F9381
:105480003F934F935F936F937F938F939F93AF93CC
:10549000BF93EF93FF9380919B05813071F08091D2
:1054A000BA0581110AC00E94DD089FB7F894809167
:1054B000BA0583608093BA059FBFFF91EF91BF91BA
:1054C000AF919F918F917F916F915F914F913F919C
:1054D0002F910F900FBE0F901F9018952F923F9213
:1054E0004F925F926F927F928F929F92AF92BF92F4
:1054F000CF92DF92EF92FF920F931F93CF93DF93A0
:10550000CDB7DEB767970FB6F894DEBF0FBECDBF3D
:10551000482E80919A058111A5C197E1A92E97E0A7
:10552000B92E9E01235F3F4F190100E010E0C12C0E
:10553000D12C7601642C712C802F0E94EC23D10198
:105540008D931D01C301002E02C0959587950A9485
:10555000E2F780FF1AC020E030E040EC5FEBF5019D
:1055600060817181828193810E940738688B572EF8
:105570004C01262F372FAC01C701B6010E94CC3752
:1055800018161CF0C888D52C74010F5F1F4FF4E06B
:10559000AF0EB11C0330110579F68090360790905C
:1055A0003707A0903807B090390726E0288B55249C
:1055B00053946EE975E0CE0101960E94D534209097
:1055C0003107312CFE0131968EE995E09F8B8E8B51
:1055D00080E090E000E010E0B701A6017058930170
:1055E000082E02C0359527950A94E2F720FF28C0BF
:1055F0000F5FAE89BF891D921D921D921C92139759
:105600009101082E02C0359527950A94E2F720FFF4
:1056100003C0552019F007C0552029F0C082D1825F
:10562000E282F38204C040835183628373832DE05E
:1056300030E02C0F3D1F280F391FD9012C91122B60
:10564000019634962E893F892C5F3F4F3F8B2E8BDE
:105650008330910521F6602F70E080E090E00E9499
:1056600069360E9494389B01AC01C501B4010E94C7
:105670000738AB01BC011093B7054A8B5B8B6C8B71
:105680007D8B0E94B928C12CD12C760100E020E04E
:105690004A895B896C897D89CE0101960E947C25AF
:1056A0000E942C1A0E9400175520E9F00E94002A3F
:1056B000FE013D9620E030E090E06191462F4123CD
:1056C00059F0AC01022E02C0559547950A94E2F7B5
:1056D00040FF02C0609516232F5F3F4F23303105F6
:1056E00061F71093B7050E942C1A8091B805847356
:1056F000C1F08091B805807329F00E94DD080E94F6
:105700003515B0C05110A9C00E94002A8421A9F704
:105710009FB7F8948091B8058B7F8093B8059FBFA1
:1057200004C0812F8C7109F0BFCF0E94BC190E9468
:10573000252580913A0790913B070E94AD2931E0E1
:105740005326C9F020E030E040EA50E460913C0785
:1057500070913D0780913E0790913F070E94073866
:105760006B017C018090320790903307A090340742
:10577000B090350710C0C0903C07D0903D07E09036
:105780003E07F0903F078090360790903707A09033
:105790003807B090390788898150888B811109CFEB
:1057A00080913107A82FB0E0B98BA88BC0903C073F
:1057B000D0903D07E0903E07F0903F07160127018B
:1057C00057FA509457F8509403EF16E08EE9882E5C
:1057D00085E0982EA12CB12CC3010A2C02C095950E
:1057E00087950A94E2F780FF29C0888999890A2C55
:1057F00002C0959587950A94E2F7F80180FF0EC0E4
:1058000024A135A146A157A1C701B6010E94F034D9
:10581000D8012D913D914D915C9106C0208131813F
:1058200042815381C201B1010E9407380E94D737DB
:10583000D4016D937D938D939C931397BFEFAB1A17
:10584000BB0AE4E08E0E911C0C5F1F4FF3E0AF1615
:10585000B10411F60E94B92805C08091B80582FFF5
:1058600057CF4BCF67960FB6F894DEBF0FBECDBFB4
:10587000DF91CF911F910F91FF90EF90DF90CF902C
:10588000BF90AF909F908F907F906F905F904F9060
:105890003F902F900895BF92CF92DF92EF92FF92A8
:1058A0000F931F93CF93DF938C01C7E1D7E0BB2405
:1058B000B394F801C190D190E190F1908F0120E074
:1058C00030E0A901C701B6010E94CC3718164CF090
:1058D000288139814A815B81C701B6010E94C9359F
:1058E00087FDB0929D0580919D05882361F180918F
:1058F0009B058830A9F00E94DD089FB7F89480913D
:10590000BA0585608093BA059FBFDF91CF911F9143
:105910000F91FF90EF90DF90CF90BF900C943515D2
:105920009FB7F8948091B80588608093B8059FBFB1
:105930000E94351580919A0581110BC080919B05BD
:105940008111F6CFD8CF2496F7E0C332DF0709F0F4
:10595000B0CFDF91CF911F910F91FF90EF90DF902B
:10596000CF90BF900895CF93DF93EC018991882366
:1059700019F00E947814FACFDF91CF910895CF9358
:10598000DF93FC018491EF012196882321F00E948E
:105990007814FE01F7CFDF91CF910895EF92FF9237
:1059A0000F931F93CF93DF931F92CDB7DEB7262FB0
:1059B000EDB6FEB66DB77EB7641B71090FB6F894ED
:1059C0007EBF0FBE6DBF0DB71EB70F5F1F4F302FCD
:1059D000F8019E2F931B941728F4622F0E94FF3822
:1059E0009193F7CF442361F0F801E40FF11D319753
:1059F0008081805D49830E94781449814150F2CFB3
:105A00000FB6F894FEBE0FBEEDBE0F90DF91CF91A2
:105A10001F910F91FF90EF90089548E062E00C9481
:105A2000CE2C8A3020F0843620F442E003C041E0DE
:105A300001C043E06AE00C94CE2C8F929F92AF920B
:105A4000BF92CF92DF92EF92FF920F931F93CF936B
:105A5000DF93CDB7DEB72A970FB6F894DEBF0FBE3F
:105A6000CDBF6B017C01142F20E030E0A9010E9422
:105A7000C93587FF07C08DE20E947814F7FAF094C9
:105A8000F7F8F094012F023060F020E030E048ECAD
:105A900052E4C701B6010E9407386B017C01025035
:105AA000F2CF10FF0AC020E030E040E251E4C7012D
:105AB000B6010E9407386B017C0120E030E040E035
:105AC0005FE3C701B6010E94F0340E943836E1E07E
:105AD000F0E0EC0FFD1FE10FF11D2EE22083D12C31
