:100000000C942E040C944B040C944B040C94E9288F
:100010000C9407320C944B040C944B040C944B043A
:100020000C944B040C944B040C944B040C94A716A6
:100030000C944B040C944B040C944B040C944B0404
:100040000C94CB180C944B040C94CD140C948F147A
:100050000C944B040C944B040C944B040C944B04E4
:100060000C944B040C944B04A80B6E0D6E0DB20B4C
:10007000BF0BCC0BD90B6E0DDD0B6E0DEB0B6E0DAC
:10008000F50BFF0B300C6E0D6E0D6E0D090C160C82
:10009000230C19122A125D122A12611274126712AD
:1000A0006D123E22442247224A224F2259226322C5
:1000B000F222F222F2226D226F22782281228B22FA
:1000C000F222F222F222F222F2229522A122B1227F
:1000D000BB22BE22C722D022D622F222F222F22254
:1000E000F222F222F222F222F222F222F222F22270
:1000F000F222DF220C2D0F2D142D172D1A2D1D2D60
:10010000202D232D262D292D2C2D382D382D382D21
:10011000382D382D382D382D382D322D2F2D352DC9
:10012000084AD73B3BCE016E84BCBFFDC12F3D6C5E
:1001300074319ABD56833DDA3D00C77F11BED9E4C4
:10014000BB4C3E916BAAAABE000000803F05A84CA4
:10015000CDB2D44EB93836A9020C50B99186880870
:100160003CA6AAAA2ABE000000803F3E0D0A006FEE
:1001700066663A006F6E3A002C6C617365722000FF
:100180002C52583A002C4275663A002C533A002CF7
:10019000002C57506F733A002C002C4D506F733A5F
:1001A000003C436865636B003C416C61726D003CD0
:1001B000486F6D65003C486F6C64003C52756E0082
:1001C0003C5175657565003C49646C65005D0D0AC0
:1001D000005B302E39672E306266336362663A0008
:1001E0000D0A003D00244E005D0D0A002053002042
:1001F0004600205400204D3800204D3900204D3558
:1002000000204D3400204D3300204D3200204D3170
:1002100000204D300020473934002047393300207A
:10022000473931002047393000204732300020471D
:100230003231002047313900204731380020473122
:1002400037002047005B473830005B4733005B478F
:1002500032005B4731005B4730005D0D0A005B54A4
:100260004C4F3A005D0D0A002C005B4739323A00D2
:100270005D0D0A002C003A003330003238005B4735
:10028000005D0D0A002C005B5052423A00290D0A15
:1002900000206D61782074726176656C2C206D6D24
:1002A0000020616363656C2C206D6D2F7365635E48
:1002B0003200206D617820726174652C206D6D2F85
:1002C0006D696E002C20737465702F6D6D007A005F
:1002D000790078002028003D0024002028747572E1
:1002E0006E204C61736572206D6F6465206F6E2C9B
:1002F00020626F6F6C290D0A002434303D002028E5
:10030000686F6D696E672070756C6C2D6F66662CFA
:10031000206D6D290D0A002028686F6D696E6720B9
:100320006465626F756E63652C206D736563290D5E
:100330000A2432373D002028686F6D696E6720738C
:1003400065656B2C206D6D2F6D696E290D0A243249
:10035000363D002028686F6D696E672066656564AC
:100360002C206D6D2F6D696E290D0A2432353D00EC
:10037000290D0A2432343D002028686F6D696E67AC
:100380002064697220696E76657274206D61736B8A
:100390003A002028686F6D696E67206379636C6529
:1003A0002C20626F6F6C290D0A2432333D00202807
:1003B00068617264206C696D6974732C20626F6F60
:1003C0006C290D0A2432323D002028736F66742098
:1003D0006C696D6974732C20626F6F6C290D0A242F
:1003E00032313D0020286175746F2073746172741E
:1003F0002C20626F6F6C290D0A2432303D002028BA
:100400007265706F727420696E636865732C206208
:100410006F6F6C290D0A2431343D0020286172630E
:1004200020746F6C6572616E63652C206D6D290D93
:100430000A2431333D0020286A756E6374696F6E3B
:1004400020646576696174696F6E2C206D6D290D6D
:100450000A2431323D00290D0A2431313D00202883
:10046000737461747573207265706F7274206D613E
:10047000736B3A00202870726F62652070696E207D
:10048000696E766572742C20626F6F6C290D0A2478
:1004900031303D0020286C696D69742070696E737D
:1004A00020696E766572742C20626F6F6C290D0A5C
:1004B00024363D0020287374657020656E61626C7F
:1004C0006520696E766572742C20626F6F6C290DE1
:1004D0000A24353D00290D0A24343D002028646992
:1004E0007220706F727420696E76657274206D610F
:1004F000736B3A00290D0A24333D0020287374657C
:100500007020706F727420696E76657274206D61F0
:10051000736B3A002028737465702069646C6520E1
:1005200064656C61792C206D736563290D0A243232
:100530003D002028737465702070756C73652C20E5
:1005400075736563290D0A24313D0024303D002474
:1005500024202876696577204772626C2073657461
:1005600074696E6773290D0A2423202876696577DC
:10057000202320706172616D6574657273290D0AA4
:100580002447202876696577207061727365722030
:100590007374617465290D0A24492028766965778A
:1005A000206275696C6420696E666F290D0A244E9D
:1005B0002028766965772073746172747570206283
:1005C0006C6F636B73290D0A24783D76616C7565D9
:1005D000202873617665204772626C20736574749D
:1005E000696E67290D0A244E783D6C696E65202876
:1005F00073617665207374617274757020626C6FBC
:10060000636B290D0A24432028636865636B2067A8
:10061000636F6465206D6F6465290D0A2458202876
:100620006B696C6C20616C61726D206C6F636B29FF
:100630000D0A2448202872756E20686F6D696E67F8
:10064000206379636C65290D0A7E20286379636CC9
:1006500065207374617274290D0A2120286665650E
:100660006420686F6C64290D0A3F202863757272DC
:10067000656E7420737461747573290D0A637472E6
:100680006C2D7820287265736574204772626C291E
:100690000D0A000D0A4772626C20302E39675F30F8
:1006A000626633636266205B27242720666F7220B0
:1006B00068656C705D0D0A005D0D0A004469736128
:1006C000626C656400456E61626C656400436175CF
:1006D00074696F6E3A20556E6C6F636B65640027AA
:1006E0002448277C2724582720746F20756E6C6F50
:1006F000636B00526573657420746F20636F6E7452
:10070000696E7565005B000D0A0050726F626520AE
:100710006661696C0041626F727420647572696E03
:1007200067206379636C6500486172642F736F663C
:1007300074206C696D697400414C41524D3A20003F
:100740000D0A00496E76616C69642067636F6465A9
:100750002049443A00556E646566696E656420669A
:10076000656564207261746500556E737570706F95
:100770007274656420636F6D6D616E64004D6F64AB
:10078000616C2067726F75702076696F6C61746937
:100790006F6E004C696E65206F766572666C6F7760
:1007A00000486F6D696E67206E6F7420656E6162C0
:1007B0006C656400416C61726D206C6F636B004E00
:1007C0006F742069646C6500454550524F4D20722E
:1007D000656164206661696C2E205573696E6720BF
:1007E00064656661756C74730056616C7565203C58
:1007F000203320757365630053657474696E6720D8
:1008000064697361626C65640056616C7565203C57
:10081000203000496E76616C696420737461746580
:100820006D656E7400426164206E756D6265722044
:10083000666F726D617400457870656374656420DD
:10084000636F6D6D616E64206C65747465720065B4
:1008500072726F723A20006F6B0D0A0011241FBE76
:10086000CFEFD8E0DEBFCDBF11E0A0E0B1E0E4E023
:10087000F0E702C005900D92A630B107D9F717E056
:10088000A6E0B1E001C01D92A333B107E1F70E94D9
:100890004D040C9400380C9400000E945D140E94DA
:1008A000FE220E9449190E94F6318EE1E1E9F5E04D
:1008B000DF011D928A95E9F781E080939105789494
:1008C0008091210784FF03C081E080939205C1E0FD
:1008D0000E9423150E9466090E949E130E943514EF
:1008E0000E94CE280E94C92C0E9466240E941D19D5
:1008F0000E949E270E9478091092910510929305FC
:100900008091210781FF03C0C093A10502C010920E
:10091000A1050E94D215DCCF6F927F928F929F9299
:10092000AF92BF92CF92DF92EF92FF920F931F93FD
:10093000CF93DF9300D000D0CDB7DEB73C01D22EED
:10094000470158018091210785FF0BC0C3014983EE
:100950005A836B837C830E94232B7C816B815A8119
:10096000498180919205823031F149835A836B83AA
:100970007C830E9428158091910581111CC00E94E2
:10098000B52449815A816B817C81882339F00E948A
:10099000C51549815A816B817C81E7CF850174013E
:1009A0002D2DC3010E94BD2480919205811103C0A9
:1009B00088E0809392050F900F900F900F90DF9139
:1009C000CF911F910F91FF90EF90DF90CF90BF904C
:1009D000AF909F908F907F906F9008952F923F924D
:1009E0004F925F926F927F928F929F92AF92BF923F
:1009F000CF92DF92EF92FF920F931F93CF93DF93EB
:100A0000CDB7DEB7E7970FB6F894DEBF0FBECDBF08
:100A10009A8B898B1B013A0109871A872B873C87A0
:100A2000CB8ADC8AED8AFE8AA98E24E0829E200190
:100A30001124840D951D9B8F8A8FCA01840D951DED
:100A40009D8F8C8FDC018D909D90AD90BC90EA8D38
:100A5000FB8D2081318142815381C501B4010E9407
:100A6000AE336E8F7F8F88A399A32D960FAD2D97F0
:100A7000F4E00F9F8001112429893A89200F311F4A
:100A80003BA32AA3C301800F911F9DA38CA3DC016C
:100A9000CD90DD90ED90FC90F90120813181428173
:100AA0005381C701B6010E94AE336EA37FA388A70E
:100AB00099A7D501C401B0588D839E83AF83B887B1
:100AC000D701C601B05889839A83AB83BC83F101F7
:100AD000E40DF51D2E8D3F8D48A159A160817181D6
:100AE000828193810E94AD336B017C01F101E00FA3
:100AF000F11F2EA13FA148A559A560817181828176
:100B000093810E94AD334B015C01A70196016D8179
:100B10007E818F8198850E94C5362B013C01A501FD
:100B2000940169817A818B819C810E94C5369B01E9
:100B3000AC01C301B2010E94AE332B013C01A501FF
:100B400094016D817E818F8198850E94C5364B010D
:100B50005C01A701960169817A818B819C810E9449
:100B6000C5369B01AC01C501B4010E94AD33A301A0
:100B700092010E9421346B017C018091AF0520E03D
:100B800030E0A901823079F4C701B6010E948A36AB
:100B900087FD19C02BED3FE049EC50E4C701B601D9
:100BA0000E94AD330EC0C701B6010E9487341816EB
:100BB00054F02BED3FE049EC50E4C701B6010E9430
:100BC000AE336B017C0180901D0790901E07A090B2
:100BD0001F07B090200729853A854B855C85CA019F
:100BE000B9010E94AE33A50194010E94AD339B016F
:100BF000AC01C501B4010E94C5360E9452374B01B9
:100C00005C0120E030E040E05FE3C701B6010E94F4
:100C1000C53629853A854B855C850E94C5369F7708
:100C2000A50194010E948E340E9464350E94FB3419
:100C30007BA76AA7DB01AB2B09F493C14B01A12C65
:100C4000B12CB98DBB2381F0C501B4010E942735B9
:100C50009B01AC016B897C898D899E890E94C53678
:100C60006B8B7C8B8D8B9E8BC501B4010E942735CD
:100C70004B015C019B01AC01C701B6010E948E349F
:100C80002B013C012E968FAD2E97E4E08E9FC00184
:100C9000112429893A89280F391F388F2F8BF101A8
:100CA000E80FF91FD9012D913D914D915C91608123
:100CB0007181828193810E94AD33A50194010E94CC
:100CC0008E346CAB7DAB8EAB9FABA3019201C301A5
:100CD000B2010E94C5369B01AC0160E070E080E08B
:100CE00090E40E94AD336B017C012BEA3AEA4AE2C0
:100CF0005EE3C301B2010E94C5364B015C0120E0F6
:100D000030E040E850E4C701B6010E94AE339B01D9
:100D1000AC01C501B4010E94C5366CA77DA78EA7A2
:100D20009FA720E030E040E05FE3C701B6010E94EA
:100D3000C53668AB79AB8AAB9BAB1D86E1E0F0E0D2
:100D4000FA87E98729853A858AA59BA52817390757
:100D500009F407C1FD85FC3008F04AC028A939A96B
:100D60004AA95BA969817A818B819C810E94C536E1
:100D70006B017C012CA53DA54EA55FA56D817E81F3
:100D80008F8198850E94C536A70196010E94AE33D7
:100D9000B62EA72E982E892E28A939A94AA95BA973
:100DA0006D817E818F8198850E94C5366B017C01A3
:100DB0002CA53DA54EA55FA569817A818B819C817B
:100DC0000E94C5369B01AC01C701B6010E94AD333C
:100DD0006D837E838F8398872D852F5F2D878B2D45
:100DE0009A2DA92DB82D89839A83AB83BC836BC0C0
:100DF000A985BA85BD0180E090E00E942735A30156
:100E000092010E94C5366B017C010E948B3469837C
:100E10007A838B839C83C701B6010E9448374B01BC
:100E20005C01EC8DFD8DC080D180E280F380F7FA0B
:100E3000F094F7F8F094ACA1BDA18D919D910D9027
:100E4000BC91A02D8D879E87AF87B88B29813A8171
:100E50004B815C81C701B6010E94C5366D837E83DC
:100E60008F839887A50194016D857E858F859889EC
:100E70000E94C5369B01AC016D817E818F81988572
:100E80000E94AE336D837E838F839887A501940182
:100E9000C701B6010E94C5366B017C0129813A81E8
:100EA0004B815C816D857E858F8598890E94C536D2
:100EB0009B01AC01C701B6010E94AD3369837A83FF
:100EC0008B839C831D862D813E814F8158856E8D3D
:100ED0007F8D88A199A10E94AE33EA8DFB8D60833E
:100EE00071838283938329813A814B815C816EA1D6
:100EF0007FA188A599A50E94AE33AAA1BBA16D933D
:100F00007D938D939C9313972CA93DA94EA95FA91E
:100F1000EF89F88D60817181828193810E94AE3367
:100F2000AF89B88D6D937D938D939C931397639642
:100F3000CFAC63976296ECACFDAC0EAD1FAD629783
:100F4000298D4B895C896D897E8989899A890E945E
:100F50008C0480919105811115C0E985FA8531963F
:100F6000EFCE6396CFAC63976296ECACFDAC0EAD62
:100F70001FAD6297298D4B895C896D897E89C1017E
:100F80000E948C04E7960FB6F894DEBF0FBECDBF6B
:100F9000DF91CF911F910F91FF90EF90DF90CF9055
:100FA000BF90AF909F908F907F906F905F904F9089
:100FB0003F902F9008958F929F92AF92BF92CF92C1
:100FC000DF92EF92FF924B015C018091920582309B
:100FD00009F447C020E030E040EA51E4C501B40123
:100FE0000E94C5360E9464350E94FB346B017C016F
:100FF0000E94421620E030E04AE754E4C501B40103
:101000000E94C5364B015C0182E38C9DB0018D9D31
:10101000700D112480E090E00E9427359B01AC0107
:10102000C501B4010E94AD330E9464350E94FB34B7
:10103000CB010E949228C114D10499F00E94281576
:1010400021E0C21AD1088091910581110AC08FEF69
:1010500090E722E0815090402040E1F700C000007E
:10106000EACFFF90EF90DF90CF90BF90AF909F902E
:101070008F9008952F923F925F926F927F928F92FE
:101080009F92AF92BF92CF92DF92EF92FF920F9317
:101090001F93CF93DF9300D000D0CDB7DEB7782E6B
:1010A000D92E4A015B01622E80919205823009F4AB
:1010B000AAC00E9442165090A1050E94D72C8823F6
:1010C00051F09FB7F89480919305806480939305C5
:1010D0009FBF0E94281580919105811194C0C12C59
:1010E000E12CF12C8701262DB501A401872D9D2D22
:1010F0000E948C0481E08093A2059FB7F8948091B0
:1011000093058260809393059FBF0E94281580916C
:101110009105811178C080919205877FB1F7809108
:10112000A205813041F49FB7F894809193058064C3
:10113000809393059FBF0E9428158091910581118E
:1011400062C00E941D190E9466240E949E2703EA25
:1011500015E084EEE82E86E0F82E272C3D2CF801D1
:1011600061917191819191918F01F701219131915B
:10117000419151917F0129833A834B835C830E9483
:10118000293529813A814B815C810E948E34F1019D
:1011900061937193819391931F01F5E00F3A1F07BB
:1011A000F1F6C12CE12CF12C8701262DB501A4010B
:1011B000872D9D2D0E948C049FB7F89480919305F4
:1011C0008260809393059FBF0E9442168091910593
:1011D000811119C05092A1050F900F900F900F90A0
:1011E000DF91CF911F910F91FF90EF90DF90CF9003
:1011F000BF90AF909F908F907F906F905F903F9047
:101200002F900C942A2F0F900F900F900F90DF913A
:10121000CF911F910F91FF90EF90DF90CF90BF90F3
:10122000AF909F908F907F906F905F903F902F90A6
:1012300008958091930584FD1AC09FB7F89480911A
:1012400093058061809393059FBF0E9495130E9430
:10125000331480919205847351F09FB7F894809174
:1012600093058062809393059FBF0C947C1608952C
:1012700083B186719091210796FD02C096E189277E
:10128000882359F00E9419099FB7F894809193051B
:101290008066809393059FBF089584E080939205B4
:1012A0000E9495130E94C32883E00E941D290E947A
:1012B000281580919105811108C00E94780910922B
:1012C00092050E947C160C94CE2808958BE3EFEAD9
:1012D000F5E0DF011D928A95E9F76EEC75E080E09C
:1012E0000E949E21811103C087E00C94F62C089582
:1012F000CF92DF92EF92FF920F931F93CF93DF93E2
:1013000000D000D0CDB7DEB785E9C82E85E0D82E55
:1013100094EEE92E96E0F92E02EC15E0F6016191CB
:101320007191819191916F01F701219131914191D9
:1013300051917F0129833A834B835C830E94293535
:1013400029813A814B815C810E948E34F80161933E
:101350007193819391938F01F1EACF16F5E0DF0647
:10136000E9F60F900F900F900F90DF91CF911F91A2
:101370000F91FF90EF90DF90CF9008952F923F92C2
:101380004F925F926F927F928F929F92AF92BF9295
:10139000CF92DF92EF92FF920F931F93CF93DF9341
:1013A000CDB7DEB7AB970FB6F894DEBF0FBECDBF9B
:1013B00098A38F8F8AE3EAEEF5E0DF011D928A950C
:1013C000E9F78AE0EFEAF5E0ACEEB5E001900D92C6
:1013D0008A95E1F71D8E212C312CA12CB12C19A25C
:1013E000512C1E8E66246394712C95E0492E99240D
:1013F000939422E0822E8D8DEF8DF8A1E80FF11DE0
:101400000081002309F456C29FEB900F9A3128F017
:101410000E94951381E00C946B138F5F8D8FAE014A
:10142000475E5F4FBE01635E7F4F8F8D98A10E9424
:10143000E027811105C00E94951382E00C946B1384
:10144000C98CDA8CEB8CFC8CC701B6010E949337F7
:101450000E94FB34162F70E080E090E00E94293556
:101460009B01AC01C701B6010E94AD3320E030E022
:1014700048EC52E40E94C5360E9428370E94FB3493
:10148000073421F00D3409F414C151C1163209F4A6
:1014900087C0B8F4143158F4113108F0B3C01430D7
:1014A00009F450C008F47CC01A3069F117C31C312C
:1014B00051F120F4163108F4C5C010C31E3119F1E2
:1014C0000DC3103509F497C098F4153309F457C0CB
:1014D00038F41B3209F4BFC0113309F4BCC0FEC29A
:1014E0001C3308F0FBC216531093F20587E0C8C006
:1014F0001C3549F020F41A3508F092C0EFC21F35B0
:1015000008F497C0EBC261110AC0BE8DBB2329F05D
:101510000E94951388E10C946B13E1E0EE8F1C316F
:10152000A1F040F4143071F01A3009F0A8C0809294
:10153000EB05A5C0153319F11C3529F11E3109F051
:101540009EC010C09092EB059AC0662339F06A30B5
:1015500009F0C4C224E02093EB0508C0F3E0F09347
:10156000EB0504C0611104C04092EB0580E08FC020
:101570006A3009F0B3C236E03093EB05F7CF87E06D
:101580008093EB057CC0662339F06A3009F0A6C26F
:10159000A9E0A093EB05EACF98E09093EB05E6CFA6
:1015A000BE8DB111B5CFE2E0EE8F1230B1F048F44C
:1015B000112381F0113011F51093EC051093EA0519
:1015C0001FC0163281F01035B1F01330B9F410930A
:1015D000EC0506C01092EC0503C0FE8DF093EC05FF
:1015E0009092EA050DC0643109F078C224E020939E
:1015F000EC0581E04CC04092EC0502C01092EA0577
:1016000081E03EC0123129F0133131F01092F00523
:1016100005C09092F00502C08092F00582E030C0D3
:101620001A3519F41092EF0502C09092EF0583E08D
:1016300027C01D3519F49092ED0502C01092ED05FA
:1016400084E01EC0143119F49092EE0502C010928D
:10165000EE0585E015C03E8D31115ACF113331F4BE
:101660001092F10586E093E09E8F11C06A3009F078
:1016700035C29092F10586E0A3E0AE8F08C080E00D
:10168000662329F00E94951387E10C946B13F301F4
:1016900002C0EE0FFF1F8A95E2F7CF019F012A21BA
:1016A0003B21232B09F440C00E94951385E10C9443
:1016B0006B136111E7CF163018F4133048F014C0E3
:1016C000183008F40BC21A30E8F01E3151F006C28F
:1016D000123039F01E3129F011111DC09092F3051E
:1016E0001AC08092F30517C0143029F0153031F07C
:1016F0009092F50505C08092F50502C01092F5059F
:1017000089E00AC0193019F08092F40502C01092E5
:10171000F4058AE001C088E0930102C0220F331F64
:101720008A95E2F7C901BBCFA82AB92A64CE802FD7
:10173000992787FD9095A92FB92FFC01E654F1094F
:10174000E531F10508F0CAC1EC5CFF4F0C94EB37B2
:10175000C092F605D092F705E092F805F092F905EF
:1017600080E07FC0C092FA05D092FB05E092FC05B4
:10177000F092FD0539A1316039A381E072C0C092B9
:10178000FE05D092FF05E0920006F092010689A1C5
:10179000826089A382E065C0C0920206D0920306EF
:1017A000E0920406F092050699A1946099A383E063
:1017B00058C01093060684E054C0C701B6010E94C9
:1017C000F634609307067093080680930906909399
:1017D0000A0685E046C0C0920B06D0920C06E09245
:1017E0000D06F0920E0686E03CC0C0920F06D09225
:1017F0001006E0921106F092120687E032C0C09205
:101800001306D0921406E0921506F092160688E0B0
:1018100028C0C0921806D0921906E0921A06F092DB
:101820001B06A52DA1605A2E8AE01BC0C0921C0683
:10183000D0921D06E0921E06F0921F06B52DB260F2
:101840005B2E8BE00EC0C0922006D0922106E09263
:101850002206F0922306E52DE4605E2E8CE001C0A6
:1018600089E08301082E02C0000F111F0A94E2F7DD
:10187000980122213321232B21F00E94951389E125
:101880002AC721E633E002C0359527958A95E2F70D
:1018900020FF0DC020E030E0A901C701B6010E9481
:1018A000873487FF04C00E94951384E014C7202A60
:1018B000312AA1CD552029F03E8D311102C082E0A0
:1018C0008E8F25FE11C08091070690910806A09189
:1018D0000906B0910A0680389649A849B10524F056
:1018E0000E9495138BE1F7C68091ED05813031F4AC
:1018F000FE8DF230A1F520FC32C09DC28091B00572
:1019000081112DC020FE1BC08091EE05813039F57C
:1019100023E333E34BEC51E46091F6057091F70556
:101920008091F8059091F9050E94C5366093F605FF
:101930007093F7058093F8059093F90510C0809196
:10194000BD059091BE05A091BF05B091C0058093E3
:10195000F6059093F705A093F805B093F90530FCD0
:1019600010C08091B9059091BA05A091BB05B091C6
:10197000BC058093130690931406A0931506B093AC
:1019800016068091EB05813041F426FC04C00E94CC
:1019900095138CE1A0C6E89426F88091F005882381
:1019A00041F0813061F019A682E088A791E09FA301
:1019B0000BC022E029A731E038A71FA205C0A1E093
:1019C000A9A718A6B2E0BFA38091EE05813021F04F
:1019D000EE8DE330B1F52AC008E1E02E06E0F02EEE
:1019E00000E010E0C52CD12CC601002E02C0959558
:1019F00087950A94E2F780FF10C023E333E34BECB2
:101A000051E4D7016D917D918D919C910E94C536D5
:101A1000F70160837183828393830F5F1F4FF4E02C
:101A2000EF0EF11C03301105F9F6D2CF8091F105CC
:101A3000813039F424E0521621F00E94951385E29A
:101A40004AC68CE0EEECF5E0DE011D9601900D92A9
:101A50008A95E1F7A7FE17C08091F205873020F044
:101A60000E9495138DE137C69091B505981759F0EE
:101A7000BE01635F7F4F0E949E21811104C00E94BE
:101A8000951387E028C63091EB053F8F323021F067
:101A9000383009F4A2C007C1511004C00E94951348
:101AA0008AE119C6C10180759927892B09F46FCF86
:101AB00060910B0670910C0680910D0690910E06B8
:101AC0000E9493370E94FB34673050F680910606DF
:101AD000843141F0823011F427FE04C00E94951336
:101AE00084E1F9C5662319F061506F8F03C08091BE
:101AF000F2058F8FBE016F5F7F4F8F8D0E949E21F9
:101B0000882309F4BCCF409006066090E6057090EB
:101B1000E7058090E8059090E905DE0111967D01CA
:101B2000B8E1AB2EB6E0BB2E12ECC12E15E0D12EE3
:101B300000E010E0E52DF0E0FEA3EDA38DA19EA155
:101B4000002E02C0959587950A94E2F780FF33C076
:101B5000F4E14F1226C0D60158962D913D914D913A
:101B60005C915B976D917D918D919C910E94AD33BD
:101B7000F50120813181428153810E94AD33D7012B
:101B80006D937D938D939C9313970230A1F4A401E0
:101B900093010E94AD33F701608371838283938345
:101BA0000AC0F50180819181A281B381F701808310
:101BB0009183A283B3830F5F1F4FF4E0EF0EF11CFC
:101BC00024E0A20EB11C34E0C30ED11C0330110579
:101BD00009F0B4CF9FEA29220AC1552009F45ECF4B
:101BE0006090E6057090E7058090E8059090E90523
:101BF00008E116E0A2ECCA2EA5E0DA2E5E018DE027
:101C0000A80EB11CE12CF12CA52DB0E0B8A3AF8F2C
:101C10008F8D98A10E2C02C0959587950A94E2F7B6
:101C200080FF26C0F5012081318142815381D60198
:101C30006D917D918D919C910E94AD33F801208131
:101C40003181428153810E94AD33D8016D937D93E0
:101C50008D939C931397B2E0EB1214C0A4019301EF
:101C60000E94AD33F80160837183828393830AC03D
:101C7000F601808D918DA28DB38DF80180839183C3
:101C8000A283B383FFEFEF1AFF0A0C5F1F4F24E01C
:101C9000C20ED11C34E0A30EB11C83E0E816F1049F
:101CA00009F0B6CFA3C09E8D933079F4AF8DA530E7
:101CB00009F48BC0A73009F491C0A33009F096C095
:101CC000BE016F5F7F4F86E084C0552079F340905E
:101CD000EF056090E6057090E7058090E80590902C
:101CE000E905F2ECCF2EF5E0DF2E08E116E05E010B
:101CF000BDE0AB0EB11CE12CF12CE52DF0E0FEA314
:101D0000EDA38DA19EA10E2C02C0959587950A94F6
:101D1000E2F780FD0BC0F60180819181A281B38141
:101D2000F80180839183A283B3833EC0FF8DF73097
:101D3000D9F1411028C0D60158962D913D914D9171
:101D40005C915B97F50160817181828193810E9432
:101D5000AE33D8012D913D914D915C910E94AE33EF
:101D6000F8016083718382839383F2E0EF121CC0D9
:101D7000A40193010E94AE33D8016D937D938D939E
:101D80009C93139711C0F6012081318142815381C8
:101D9000D8016D917D918D919C910E94AE33F80197
:101DA0006083718382839383FFEFEF1AFF0A24E03D
:101DB000C20ED11C0C5F1F4F34E0A30EB11C83E098
:101DC000E816F10409F09DCF71CFBE016F5F7F4F20
:101DD00087E00E949E21811109C051CE8091EC05BF
:101DE000823020F00E9495138EE175C41F8E1091F1
:101DF000EC05153059F4552009F4BFC1AE8DA13062
:101E000009F444C20E9495138FE165C4BE8DB230BF
:101E100009F0B3C11123F1F020E030E0A901609195
:101E2000F6057091F7058091F8059091F9050E94EB
:101E30008734811104C00E94951386E14CC414308C
:101E400028F4123058F4113029F020C2143009F46B
:101E500053C11CC251101AC21E8E92C1552009F4E2
:101E60001DCEFFA1EF2FF0E0FEA3EDA338A5232F99
:101E700030E03BA72AA781E090E03C0108A402C023
:101E8000660C771C0A94E2F70FA002C0880F991F16
:101E90000A94E2F7682A792A852D90E08621972115
:101EA000892B21F40E94951380E215C48DA19EA177
:101EB000880F991F880F991FFC01E651FA4FDC012A
:101EC000A155BA4F53962D913D914D915C915697E6
:101ED00066A577A580A991A90E94AD336B017C010D
:101EE0008AA59BA5880F991F880F991FFC01E651B1
:101EF000FA4FDC01A155BA4F53962D913D914D916A
:101F00005C91569766A577A580A991A90E94AD33EB
:101F10004B015C0127FE40C0E89427F82091180689
:101F20003091190640911A0650911B066091C20526
:101F30007091C3058091C4059091C5050E948734B6
:101F4000811173C320911C0630911D0640911E061D
:101F500050911F066091C6057091C7058091C80514
:101F60009091C9050E94873481115FC3209120069A
:101F70003091210640912206509123066091CA05B6
:101F80007091CB058091CC059091CD050E9487344E
:101F9000882309F49BC049C3F9A14F2E512C64201A
:101FA0007520672821F40E94951383E294C321EFE2
:101FB00022228091EE05813009F456C00AA51BA5A6
:101FC000000F111F000F111F06501A4FD8012D913D
:101FD0003D914D915C91C501B4010E94AD332B013F
:101FE0003C01ADA0BEA0AA0CBB1CAA0CBB1CF501F9
:101FF000E650FA4F5F012081318142815381C70150
:10200000B6010E94AD33A30192010E949D286B018D
:102010007C01D8012D913D914D915C91F50160813C
:102020007181828193810E949D284B015C016093A4
:102030000F067093100680931106909312069B0171
:10204000AC01C701B6010E94AD336B017C01E8947D
:10205000F7F82AE037ED43EA5BE3C701B6010E94D7
:102060008A3618164CF112C12AEF622E25E0722E24
:1020700000E010E0C201002E02C0959587950A94F9
:10208000E2F780FF10C023E333E34BEC51E4D301CC
:102090006D917D918D919C910E94C536F301608375
:1020A0007183828393830F5F1F4FF4E06F0E711C67
:1020B00003301105F9F682CF20E030E040E05FE325
:1020C000C701B6010E948A36181624F40E9495139F
:1020D00081E201C32FE632E143E85AE3C501B401CE
:1020E0000E94C5369B01AC01C701B6010E948A3629
:1020F00018160CF0CBC0EACF552009F4CFCC2091B4
:1021000018063091190640911A0650911B066091ED
:10211000C2057091C3058091C4059091C5050E94C8
:1021200087348111B3C020911C0630911D06409167
:102130001E0650911F066091C6057091C7058091DB
:10214000C8059091C9050E94873481119FC02091D4
:10215000200630912106409122065091230660917D
:10216000CA057091CB058091CC059091CD050E9458
:102170008734882309F4AACF89C02E8D211186C007
:10218000C1018E7D9C7F85C0C301B2010E94523780
:102190002B013C01A5019401C701B6010E949D28B5
:1021A0009B01AC01C301B20190580E948E342B01F7
:1021B0003C018091EC05833021F477FA709477F834
:1021C000709480910F0690911006A0911106B09125
:1021D000120689A39AA3ABA3BCA320E030E0A90117
:1021E000BC01CD010E94873487FF11C077FA70943B
:1021F00077F8709489A19AA1ABA1BCA1B058809343
:102200000F0690931006A0931106B09312060DA12D
:102210001EA1000F111F000F111F06501A4FA3011E
:102220009201C501B4010E94C5369B01AC01C701F2
:10223000B6010E94AD3320E030E040E05FE30E9451
:10224000C536D8016D937D938D939C9313970AA502
:102250001BA5000F111F000F111F06501A4FA301DD
:102260009201C701B6010E94C5369B01AC01C501B0
:10227000B4010E94AE3320E030E040E05FE30E9412
:10228000C536F8016083718382839383C1018E7D9B
:10229000907E892B21F00E94951384E21CC28091CC
:1022A000ED058093B0058091F6059091F705A0911A
:1022B000F805B091F9058093BD059093BE05A093F4
:1022C000BF05B093C005C0901306D0901406E090EF
:1022D0001506F0901606A70196016091B905709158
:1022E000BA058091BB059091BC050E948734882374
:1022F000D9F0C092B905D092BA05E092BB05F09230
:10230000BC05809121079091220790FF04C0809125
:10231000EA05811109C08091B805882329F020E0E1
:10232000B701A6010E94DC13809117068093C105B6
:102330008091F5059091B8059817B9F08093B8058C
:10234000209121073091220730FF04C09091EA05C7
:1023500091110BC04091B9055091BA056091BB0530
:102360007091BC0520E00E94DC138091F4059091EF
:10237000B705981721F08093B7050E943814809113
:10238000EB05813051F460910B0670910C06809141
:102390000D0690910E060E94DB078091F005809358
:1023A000B3058091EE058093B1053E8D3330F9F48D
:1023B0008091F1058093B405813089F480912006E5
:1023C00090912106A0912206B09123068093E60504
:1023D0009093E705A093E805B093E90508C0109233
:1023E000E6051092E7051092E8051092E905809144
:1023F000F2059091B505981759F08093B5058CE0DA
:10240000FE013D96AEECB5E001900D928A95E1F7A4
:102410008091EF058093B2058091EB0590E0FC017F
:102420003297E830F10508F05FC0E75BFF4F0C948E
:10243000EB37BE016F5F7F4F8F8D0E9481208091AF
:10244000B5059F8D891350C08CE0FE013196AEEC2E
:10245000B5E02EC0AE8DAA2399F0E090B905F090BA
:10246000BA050091BB051091BC05C090B80520E0ED
:1024700040E050E060E87FEB88E196E00E948C0449
:10248000E090B905F090BA050091BB051091BC052C
:10249000C090B80520E040E050E060E87FEBCE015E
:1024A00001960E948C048CE0FE013196A2ECB5E00E
:1024B00001900D928A95E1F717C062EC75E086E015
:1024C00003C062EC75E087E00E9481200DC08CE0C3
:1024D000E8E1F6E0AAEDB5E0EBCF8CE0EAEDF5E05F
:1024E000DF011D928A95E9F78091EC058093AF0595
:1024F000853009F485C0BE8DB23009F081C08430CA
:10250000E8F4823008F040C0882351F1813009F0AE
:102510006EC0E090B905F090BA050091BB0510912E
:10252000BC054091BD055091BE056091BF057091FD
:10253000C005C090B8052091B00521C0843009F0D5
:1025400056C04091BD055091BE056091BF05709188
:10255000C0052091B00588E196E00E943A0847C086
:10256000E090B905F090BA050091BB051091BC054B
:10257000C090B80520E040E050E060E87FEB88E1E3
:1025800096E00E948C0433C0C090BD05D090BE057B
:10259000E090BF05F090C00500910F061091100665
:1025A00020911106309112068091B8058F93809189
:1025B000BC058F938091BB058F938091BA058F9353
:1025C0008091B9058F93E9A5EF93F8A5FF938FA0AC
:1025D000A090B0054AEF55E068E176E082EC95E026
:1025E0000E94EE040FB6F894DEBF0FBECDBF8CE0A4
:1025F000E8E1F6E0A2ECB5E001900D928A95E1F7F2
:102600008091F3058093B605882369F00E944216F5
:102610001092A1058091B605823019F40E94190923
:1026200002C01092B60580E056C08091EE05813060
:10263000B1F423E333E34BEC51E460910F06709166
:10264000100680911106909112060E94C536609383
:102650000F06709310068093110690931206409017
:102660000F0650901006609011067090120620E040
:1026700030E040E850E4C301B2010E94C536A30136
:1026800092010E94C5362B013C01A7019601C701AA
:10269000B6010E94C5369B01AC01C301B2010E9484
:1026A000AD332B013C01A5019401C501B4010E9489
:1026B000C5369B01AC01C301B2010E94AD332B01B1
:1026C0003C0120E030E0A9010E94873487FF5CCD07
:1026D0000E94951382E2AB960FB6F894DEBF0FBE50
:1026E000CDBFDF91CF911F910F91FF90EF90DF90C1
:1026F000CF90BF90AF909F908F907F906F905F90A2
:102700004F903F902F900895E0EBF0E080818F771D
:1027100080832B9808958091B300882329F08091BD
:10272000B00080688093B00008951092B300E0EB91
:10273000F0E080818F7780832B980895239A239AE5
:10274000259A0C94951383E88093B000E1EBF0E0B8
:102750008081887F8260808308958093B30008958C
:10276000CF92DF92EF92FF926B017C0120E030E08C
:102770004AE754E40E948A36181634F4C12CD12C4E
:102780008AE7E82E84E4F82E2CE53FE842E85EE391
:10279000C701B6010E94C53620E030E040E05FE3AB
:1027A0000E94AE330E9464350E94FB34862FFF9056
:1027B000EF90DF90CF9008951F93CF93DF9300D0D9
:1027C00000D01F92CDB7DEB7182F809192058230CE
:1027D00009F440C0E0912107F0912207F0FF02C008
:1027E00021110CC029834A835B836C837D830E9403
:1027F000C5157D816C815B814A812981E09121072A
:10280000F0912207F0FF02C021110AC04A835B83C6
:102810006C837D830E9442167D816C815B814A813D
:1028200011110AC00F900F900F900F900F90DF9131
:10283000CF911F910C949513113011F42D9801C074
:102840002D9ACB01BA010E94B0138093B3000E946D
:10285000A3132B9A0F900F900F900F900F90DF9172
:10286000CF911F910895439808953B9A0C94331487
:10287000CF93DF931F92CDB7DEB790919205923040
:1028800079F089830E94C5150E94421689818230A1
:1028900011F4439A05C00F90DF91CF910C9433143B
:1028A0000F90DF91CF9108959091080180910901D7
:1028B000891708F48058891B0895E0ECF0E08081C6
:1028C000826080831092C50080E18093C400E1ECB7
:1028D000F0E0808180618083808188608083808156
:1028E000806880830895E091070191E09E0F903405
:1028F00009F490E020910601921305C02091930500
:1029000024FFF8CF0895F0E0EC5DF94F80839093B9
:1029100007018091C10080628093C10008951F92D9
:102920000F920FB60F9211248F939F93EF93FF9303
:1029300080910601E82FF0E0EC5DF94F90819093D3
:10294000C6008F5F803409F480E080930601909187
:102950000701891305C08091C1008F7D8093C1005C
:10296000FF91EF919F918F910F900FBE0F901F904D
:1029700018959091080180910901891761F0E92F5C
:10298000F0E0EC59F94F80819F5F903809F490E0B6
:102990009093080108958FEF08951F920F920FB63C
:1029A0000F9211242F933F934F935F936F937F93D5
:1029B0008F939F93AF93BF93EF93FF938091C60044
:1029C0008132B1F028F48831E1F40E9419092AC05B
:1029D0008F3341F08E37A9F49FB7F8948091930517
:1029E00082600BC09FB7F89480919305816005C009
:1029F0009FB7F894809193058860809393059FBF5B
:102A000011C0E091090191E09E0F903809F490E027
:102A100020910801921731F0F0E0EC59F94F8083D2
:102A200090930901FF91EF91BF91AF919F918F9189
:102A30007F916F915F914F913F912F910F900FBEBA
:102A40000F901F90189580910901809308010895B7
:102A5000CF93C0919305CC2309F48EC08C2F807640
:102A600049F181E0809392050E948413C6FF17C04C
:102A7000C5FF02C08FEF01C08DEF0E94442D81E0A1
:102A80000E94632D9FB7F894809193058F7E809369
:102A900093059FBF8091930584FFFCCF03C08EEF09
:102AA0000E94442D9FB7F894809193058F7980936D
:102AB00093059FBFC4FF06C00E94841381E08093EA
:102AC000910561C0C0FF0AC00E94DE309FB7F89434
:102AD000809193058E7F809393059FBFC3FF15C0A0
:102AE00080919205803149F480E2809392050E94A2
:102AF0006B190E948D191092A1059FB7F8948091CF
:102B00009305877F809393059FBFC1FF1FC080916E
:102B10009205883099F480E1809392050E948B138E
:102B20000E948D190E945C168091210781FF04C0CC
:102B300081E08093A10502C01092A1059FB7F8948F
:102B4000809193058D7F809393059FBFC2FF14C032
:102B50000E948B24892B31F00E94841388E080939B
:102B6000920502C0109292059FB7F8948091930548
:102B70008B7F809393059FBF80919205847319F09A
:102B8000CF910C948D19CF9108958091A105882340
:102B900041F09FB7F89480919305826080939305EC
:102BA0009FBF0895CF93DF930E94892D8091920556
:102BB000813021F482E00E94632D21C010929205A1
:102BC0008AE091E00E9443321AC08D3069F0DD2323
:102BD00089F1D1E0893209F4D0E00E94B9148F3F25
:102BE00009F444C08A3089F7EC2FF0E0E65FFE4F2D
:102BF00010820E94281580919105882311F0C0E071
:102C0000EBCF80910A01811103C00E94F62CF7CF0F
:102C1000843229F48AE091E00E946232F6CF8091FA
:102C20009205813011F489E0F0CF8AE091E00E94B2
:102C3000BE09EBCF813288F28F3279F28832A1F06F
:102C4000CF3428F08BE00E94F62CC0E0C6CF2C2FAA
:102C500030E0CF5F9FE9980FF901E65FFE4F9A31B0
:102C600008F480528083B9CFD1E0B7CF0E94C51558
:102C70000E94281580919105882309F4AECFDF9139
:102C8000CF9108950E94C51580919205803171F40D
:102C900081E08093A1050AC080919205803159F4AA
:102CA0000E94281580919105811105C00E948B24F6
:102CB000892BB1F7F1CF08958091210782FF02C0DF
:102CC000289A01C02898809192058471A1F0809182
:102CD0008A0180939E0180918B0180939D01809158
:102CE0001407880F8450819580939C0180916F0018
:102CF000826080936F00089580916F008D7F809334
:102D00006F0080918100887F8160809381001092A4
:102D10008901809117078F3F21F49091930595FFCA
:102D200009C090919205943029F090E00E94922879
:102D300081E001C080E09091210792FF02C091E004
:102D40008927882311F0289A0895289808951F92BA
:102D50000F920FB60F9211242F933F934F935F93CF
:102D60006F937F938F939F93AF93BF93EF93FF9353
:102D7000809189018111FEC19BB180919E01807E6D
:102D80009F71892B8BB98BB1837E90919D01892B8B
:102D90008BB980919C0186BD82E085BD81E08093E6
:102DA000890178948091B0019091B101892B09F04B
:102DB000B3C080918E0190918D01981709F4A1C044
:102DC000E0918E0186E0E89FF0011124EE54FE4F61
:102DD000F093B101E093B0018381948190938900D5
:102DE00080938800808191819093AC018093AB01A6
:102DF000E2818091AD018E17C1F1E093AD0183E1D5
:102E0000E89FF0011124EA52FE4FF093AF01E093E6
:102E1000AE0185859685A785B089B695A7959795C6
:102E2000879580938F0190939001A0939101B09327
:102E300092018093930190939401A0939501B09394
:102E400096018093970190939801A0939901B09374
:102E50009A01809121079091220790FF06C08289F4
:102E6000882319F081890E94AD13E091AE01F091A1
:102E7000AF0180918A019081892780939E01A09162
:102E8000B001B091B10115962C9181819281A381FD
:102E9000B481022E04C0B695A795979587950A949C
:102EA000D2F780939F019093A001A093A101B093CA
:102EB000A20185819681A781B085022E04C0B695B6
:102EC000A795979587950A94D2F78093A30190933D
:102ED000A401A093A501B093A60181859285A38545
:102EE000B48504C0B695A795979587952A95D2F78E
:102EF0008093A7019093A801A093A901B093AA0180
:102F00000BC00E947C169FB7F89480919305846053
:102F1000809393059FBF2EC10E94DD2C10929D01CE
:102F200080919F019091A001A091A101B091A20177
:102F300040918F01509190016091910170919201A7
:102F4000840F951FA61FB71F80938F019093900148
:102F5000A0939101B0939201E091AE01F091AF0185
:102F60004585568567857089481759076A077B0725
:102F700068F524E020939D01458556856785708915
:102F8000841B950BA60BB70B80938F019093900138
:102F9000A0939101B0939201208180919505909129
:102FA0009605A0919705B091980525FF04C001975B
:102FB000A109B10903C00196A11DB11D809395051A
:102FC00090939605A0939705B09398058091A301DF
:102FD0009091A401A091A501B091A6014091930107
:102FE000509194016091950170919601840F951F05
:102FF000A61FB71F8093930190939401A09395010E
:10300000B09396014585568567857089481759079D
:103010006A077B0778F520919D01286020939D0128
:103020004585568567857089841B950BA60BB70B64
:103030008093930190939401A0939501B09396018E
:1030400020818091990590919A05A0919B05B0915E
:103050009C0526FF04C00197A109B10903C0019690
:10306000A11DB11D8093990590939A05A0939B058E
:10307000B0939C058091A7019091A801A091A9010E
:10308000B091AA01409197015091980160919901E6
:1030900070919A01840F951FA61FB71F8093970107
:1030A00090939801A0939901B0939A014585568514
:1030B00067857089481759076A077B0778F520915B
:1030C0009D01206120939D01458556856785708906
:1030D000841B950BA60BB70B8093970190939801D7
:1030E000A0939901B0939A01208180919D059091C0
:1030F0009E05A0919F05B091A00527FF04C00197F0
:10310000A109B10903C00196A11DB11D80939D05C0
:1031100090939E05A0939F05B093A0058091920582
:10312000843039F48091940590919D018923809396
:103130009D018091AB019091AC0101979093AC01FE
:103140008093AB01892B69F41092B1011092B00108
:1031500080918E018F5F80938E01863011F41092E2
:103160008E0180918B0190919D01892780939D0113
:1031700010928901FF91EF91BF91AF919F918F9133
:103180007F916F915F914F913F912F910F900FBE63
:103190000F901F9018951F920F920FB60F92112447
:1031A0008F939F939BB180918B018C71937E892B20
:1031B0008BB915BC9F918F910F900FBE0F901F90F0
:1031C0001895FF920F931F93CF93DF9310928B016B
:1031D00010928A01C0E0D0E00C2F1C2F209115071F
:1031E00030E08C2F0C2E02C0359527950A94E2F71B
:1031F00020FF07C0F0908B010E942D238F29809320
:103200008B012091160730E002C0359527951A955D
:10321000E2F720FF08C010918A01802F0E94372317
:10322000812B80938A012196C330D105A9F6DF91C5
:10323000CF911F910F91FF9008950E947C168BE211
:10324000EAE5F1E0DF011D928A95E9F783E2EFE814
:10325000F1E0DF011D928A95E9F710928801109242
:10326000870110928E0110928D0181E080938C0174
:10327000109289010E94E1188BB1837E90918B019D
:10328000892B8BB98BB18F7190918A01892B8BB966
:1032900008958AB18C618AB9209A8AB1806E8AB900
:1032A000E1E8F0E080818F7E808380818860808388
:1032B000E0E8F0E080818C7F808380818F70808364
:1032C000EEE6F0E08081887F808314BC15BC8081AD
:1032D000816080830895CF93DF93C0918701D0915F
:1032E00088012097B9F081E080935B0160917101C2
:1032F0007091720180917301909174019B01AC01F6
:103300000E94C5366E8B7F8B888F998F10928801B3
:1033100010928701DF91CF9108952F923F924F92A3
:103320005F926F927F928F929F92AF92BF92CF9255
:10333000DF92EF92FF920F931F93CF93DF93CDB75E
:10334000DEB7E5970FB6F894DEBF0FBECDBF909104
:103350008E0180918C01981709F4FDC58091870139
:1033600090918801892B09F073C20E948B24FC0183
:103370009093880180938701009709F4ECC58091B0
:103380005B01882319F010925B01D3C080915A0130
:103390008F5F853019F080935A0102C010925A0154
:1033A00000915A0123E1209F800111240A521E4FEF
:1033B00010938601009385018581D8018C93468105
:1033C00057816085718583E0440F551F661F771F05
:1033D0008A95D1F711964D935D936D937C931497D5
:1033E000428553856485758593E0440F551F661F9C
:1033F000771F9A95D1F715964D935D936D937C93B6
:103400001897468557856089718923E0440F551FB9
:10341000661F771F2A95D1F719964D935D936D938B
:103420007C931C97428953896489758933E0440FE2
:10343000551F661F771F3A95D1F71D964D935D93E3
:103440006D937C935097848152968C9360817181A7
:10345000828193810E94B013F801818B00918701D2
:1034600010918801D80152966D917D918D919C911A
:1034700055970E94273560935C0170935D0180939E
:103480005E0190935F01F80122A533A544A555A5DF
:103490000E948E349B01AC016093600170936101C6
:1034A000809362019093630160E070E080EA9FE3A3
:1034B0000E948E346093640170936501809366016D
:1034C00090936701109268011092690110926A014D
:1034D00010926B01809192058032E1F46091790144
:1034E00070917A0180917B0190917C0160937101D0
:1034F0007093720180937301909374019B01AC01EE
:103500000E94C536D80156966D937D938D939C93FA
:1035100059970FC0F80166897789808D918D0E9437
:10352000523760937101709372018093730190938D
:10353000740110926D0110926E0110926F01109241
:1035400070010091870110918801D80196968D90A5
:103550009D90AD90BC909997A501940160E070E0BA
:1035600080E09FE30E948E342B013C018091920504
:10357000F801C2A4D3A4E4A4F5A4803209F04FC09A
:10358000F2E0F0936C01D80156962D913D914D914A
:103590005C9159972D833E834F835887C301B201B5
:1035A0000E94C5369B01AC01C701B6010E94AD3334
:1035B0002B013C0120E030E0A9010E94873487FF05
:1035C0001DC0A5019401C501B4010E94AE33A7013D
:1035D00096010E94C5369B01AC016D817E818F8171
:1035E00098850E94AD330E945237609379017093A1
:1035F0007A0180937B0190937C012AC140926D01F6
:1036000050926E0160926F01709270011092790178
:1036100010927A0110927B0110927C0119C11092D4
:103620006C01C0927D01D0927E01E0927F01F09208
:1036300080010E949B244B015C016093790170938F
:103640007A0180937B0190937C019B01AC010E94E5
:10365000C53669837A838B839C830091870110919F
:103660008801D8019A962D913D914D915C919D973D
:1036700029873A874B875C8756962D913D914D91CE
:103680005C9159972D833E834F8358879B01AC01F2
:103690006D817E818F8198850E94AD339B01AC0145
:1036A000C301B2010E94C5369B01AC0169857A85D0
:1036B0008B859C850E94AE3320E030E040E05FE3E4
:1036C0000E94C5366B017C0120E030E0A9010E9418
:1036D0008A3618160CF0ACC029853A854B855C8576
:1036E000C701B6010E94873487FF8EC0F80182A00F
:1036F00093A0A4A0B5A029813A814B815C81C5012A
:10370000B4010E94AD339B01AC01C301B2010E9420
:10371000C5366093810170938201809383019093F9
:103720008401A70196010E94873487FF3DC0C5012F
:10373000B4010E94523760937501709376018093B3
:10374000770190937801A50194016D817E818F812D
:1037500098850E948734811104C0F1E0F0936C01D8
:1037600077C02D813E814F815885C501B4010E94EB
:10377000AD339B01AC01C301B2010E94C5369B0170
:10378000AC0160917D0170917E0180917F019091EB
:1037900080010E94AD3360937D0170937E01809320
:1037A0007F019093800154C0C0927D01D0927E0130
:1037B000E0927F01F0928001C0928101D09282015B
:1037C000E0928301F0928401D80196966D917D91EB
:1037D0008D919C9199979B01AC010E94AE33A701FA
:1037E00096010E94C53629813A814B815C810E94F5
:1037F000AE330E94523760937501709376018093C7
:1038000077019093780124C0B2E0B0936C0180916D
:10381000710190917201A0917301B0917401809334
:10382000750190937601A0937701B093780110C051
:1038300010927D0110927E0110927F011092800102
:103840008092750190927601A0927701B0927801F2
:1038500080918D01F6E0F89FF0011124EE54FE4FA7
:10386000FE83ED8380915A018283209187013091FC
:1038700088013E872D87D9019A96BC91BCA7F90192
:10388000F3A5FDA7D9019C96BC91BEA7F901F5A5AA
:10389000FFA720916401309165014091660150912C
:1038A00067016CA57DA58B2F9F2F0E94AD3368A764
:1038B00079A78AA79BA720E030E0A9010E9487345E
:1038C00087FF04C018A619A61AA61BA620917D0181
:1038D000288F30917E01398F40917F014A8F50911E
:1038E00080015B8F809175018C8F909176019D8F07
:1038F000A0917701AE8FB0917801BF8FE0918101E7
:10390000E8A3F0918201F9A3209183012AA33091C9
:1039100084013BA340916D014CA350916E015DA3C6
:1039200080916F018EA3909170019FA320917901E6
:1039300030917A0140917B0150917C0128AB39ABE9
:103940004AAB5BAB30917101398340917201498779
:10395000209073013090740150916C015F878CA5A9
:103960008C8B9DA59D8BAEA5AE8BBFA5BF8B3EE37B
:10397000C32E33ECD32E3EE2E32E39E3F32E188A26
:10398000198A1A8A1B8A26013701EF85EE2321F056
:10399000E13009F47CC0B1C0AD85BE8596962D910D
:1039A0003D914D915C919997C701B6010E94C53632
:1039B0004B015C0120E030E040E05FE30E94C5364F
:1039C0009B01AC0169817985C1010E94AE339B01E5
:1039D000AC01C701B6010E94C5369B01AC016C89E0
:1039E0007D898E899F890E94AD338B018DAB9CAB05
:1039F000288D398D4A8D5B8D0E94873487FF3FC0AB
:103A0000288D398D4A8D5B8D6CA57DA58EA59FA5D2
:103A10000E94AD339B01AC010E94AE336B017C016F
:103A20002C8D3D8D4E8D5F8D69817985C1010E9400
:103A3000AE339B01AC01C701B6010E948E346B010D
:103A40007C0128A139A14AA15BA1688D798D8A8D5D
:103A50009B8D0E948734882319F0B1E0BF8702C094
:103A6000E2E0EF87FC8DF9832D8D29872E8C3F8C2A
:103A7000088D198D3A8D3DAB4B8D4CABAFC0A50178
:103A8000940169817985C1010E94AE337CC0A70190
:103A900096016C8D7D8D8E8D9F8D0E94C5369B010C
:103AA000AC016C897D898E899F890E94AD338B0121
:103AB0008DAB9CAB28A139A14AA15BA10E948734A0
:103AC00087FF8CC028A139A14AA15BA16C897D899F
:103AD0008E899F890E94AD332C8D3D8D4E8D5F8DDB
:103AE0000E948E346B017C0108A119A15AA15DAB23
:103AF0008BA18CAB92E09F8771C0AD85BE859696F9
:103B00002D913D914D915C919997C701B6010E940D
:103B1000C5364B015C019B01AC0169817985C1010E
:103B20000E948A3618169CF520E030E040E05FE302
:103B3000C501B4010E94C5369B01AC01698179853C
:103B4000C1010E94AD339B01AC01C701B6010E94C7
:103B5000C5369B01AC016C897D898E899F890E9445
:103B6000AD338B018DAB9CAB2CA13DA14EA15FA1D0
:103B70000E948A3618165CF4A50194016981798542
:103B8000C1010E94AD33698379871C0127C02CA134
:103B90003DA14EA15FA16C897D898E899F890E947C
:103BA000AD339B01AC010E94AE336B017C0128A9AF
:103BB00039A94AA95BA969817985C1010E94AE33FF
:103BC0009B01AC01C701B6010E948E346B017C01E0
:103BD0000CA11DA1BEA1BDABEFA1ECABA70196014D
:103BE000688979898A899B890E94AE33688B798B31
:103BF0008A8B9B8BA30192010E94873487FD5AC058
:103C000028A539A54AA55BA5B8018DA99CA90E9444
:103C10008A3618160CF444C089819985D1018093A5
:103C2000710190937201A0937301B0937401FF85A9
:103C3000F0936C01409060015090610160906201CE
:103C40007090630198014DA95CA9C301B2010E9463
:103C5000C53669837A838B839C830E9474346B019D
:103C60007C0160915C0170915D0180915E01909199
:103C70005F010E9474344B015C01A70196010E9410
:103C8000AD330E94FB3469877A878B879C87E985EF
:103C9000FA85AD81BE81ED93FC933097B1F15AC0A6
:103CA0002EE333EC4EE259E3C301B2010E94AE337E
:103CB0002B013C01288939894A895B89C301B201FA
:103CC0000E94AD336B017C012CA13DA14EA15FA1EF
:103CD000B8018DA99CA90E948A3618167CF08981AA
:103CE0009985D1018093710190937201A093730122
:103CF000B09374013F8530936C019CCF0C8B1D8B6E
:103D00004DA94E8B5CA95F8B40CE8091920580328D
:103D100009F51092710110927201109273011092C4
:103D20007401109268011092690110926A01109258
:103D30006B01C0925C01D0925D01E0925E01F09255
:103D40005F01A3019201C701B6010E948E34AD85C7
:103D5000BE85EEC0209168013091690140916A01F1
:103D600050916B01688979898A899B890E94AE3359
:103D70002B013C0129813A814B815C81C501B40151
:103D80000E94AD339B01AC01C301B2010E948E348D
:103D90004B015C0129813A814B815C81C701B601ED
:103DA0000E94AD33A50194010E94C536609368015D
:103DB0007093690180936A0190936B0120EC31EE5E
:103DC00044E65EE4C501B4010E94C5360E94743425
:103DD0000E94FB34603DB7E07B078105910520F42C
:103DE000ED81FE81158231C0603AFFE07F078105D9
:103DF000910510F4E1E009C06034FFE17F0781051F
:103E0000910510F4E2E001C0E3E0AD81BE811596BA
:103E1000EC93AD81BE8115962C911597022E04C0AE
:103E200096958795779567950A94D2F7E985FA85EF
:103E300002C0EE0FFF1F2A95E2F7ED93FC93611588
:103E40007105F1E08F07910538F4AD81BE811496BC
:103E50007C936E93139706C02FEF3FEFED81FE81A9
:103E60003483238380918C0180938D018F5F863012
:103E700019F080938C0102C010928C0120916D0189
:103E800030916E0140916F0150917001B8018DA980
:103E90009CA90E948A361816C4F4E0918701F0911B
:103EA0008801C801ADA9BCA982A793A7A4A7B5A7FB
:103EB00089819A81AB81BC8180935C0190935D0183
:103EC000A0935E01B0935F0142CA20E030E0A901F7
:103ED000B8018DA99CA90E948A361816ACF51092DB
:103EE000710110927201109273011092740110927C
:103EF00068011092690110926A0110926B01C092E0
:103F00005C01D0925D01E0925E01F0925F01009150
:103F100087011091880120916001309161014091E9
:103F2000620150916301C701B6010E948E34D8012D
:103F30009A966D937D938D939C939D970E94D8271D
:103F400088E08093920507C0109288011092870143
:103F50000E947724FCC9E5960FB6F894DEBF0FBE29
:103F6000CDBFDF91CF911F910F91FF90EF90DF9028
:103F7000CF90BF90AF909F908F907F906F905F9009
:103F80004F903F902F900895F999FECF92BD81BD3B
:103F900081E08FBB80B50895F894F999FECF92BD6A
:103FA00081BD81E08FBB40B54627842F992787FDCF
:103FB0009095262F30E082239323892B39F06F3F91
:103FC00019F060BD84E006C084E104C0442321F000
:103FD00060BD84E28FBBF99A789408959F92AF9266
:103FE000BF92CF92DF92EF92FF920F931F93CF93E6
:103FF000DF938C017A016B01C40ED51EEB01912C6D
:104000005C01A61AB70ACE018A0D9B1DCC15DD05F1
:1040100091F0911009C0692D772767FD7095272FC2
:10402000221F2227221F01C021E06991922E960EA5
:104030000E94CC1FE8CF692DC8018E0D9F1DDF9116
:10404000CF911F910F91FF90EF90DF90CF90BF9095
:10405000AF909F900C94CC1F9F92AF92BF92CF9243
:10406000DF92EF92FF920F931F93CF93DF938B0119
:104070007A016C01C40ED51EEC01912C5B01A81ACB
:10408000B90AC5018C0F9D1FCC15DD0591F00E946A
:10409000C41F911009C0292D332727FD3095232FE8
:1040A000221F2227221F01C021E0922E980E899301
:1040B000E8CFC8018E0D9F1D0E94C41F21E030E093
:1040C000981611F020E030E0C901DF91CF911F91E7
:1040D0000F91FF90EF90DF90CF90BF90AF909F90A7
:1040E000089521E5829FC001112440E550E09D5FC5
:1040F0000C94EE1F40E550E0BC018EEA93E00C9476
:10410000EE1F2DE0829FC00111244CE050E09E5F25
:104110000C94EE1F69E080E090E00E94CC1F4EE41A
:1041200050E064EE76E081E090E00C94EE1F8AE0CF
:104130008093140789E1809317071092150781E097
:10414000809316078FE1809318078AE097EDA3EA22
:10415000BCE38093190790931A07A0931B07B093B1
:104160001C078FE692E1A3E0BBE380931D079093C9
:104170001E07A0931F07B093200783E080932307B7
:1041800080E090E0A8ECB1E48093240790932507A9
:10419000A0932607B093270780E090E0AAEFB4E44D
:1041A0008093280790932907A0932A07B0932B07A1
:1041B00084E690E090932D0780932C0780E090E0B8
:1041C000A0E8BFE380932E0790932F07A0933007BA
:1041D000B093310782E391E0909322078093210707
:1041E00080E090E0A8ECB2E48093E4069093E506CA
:1041F000A093E606B093E7068093E8069093E9065D
:10420000A093EA06B093EB068093EC069093ED063C
:10421000A093EE06B093EF0680E090E4ACE9B5E43D
:104220008093F0069093F106A093F206B093F30604
:104230008093F4069093F506A093F606B093F706E4
:104240008093F8069093F906A093FA06B093FB06C4
:1042500080E09FECA9E1BAE48093FC069093FD0610
:10426000A093FE06B093FF0680930007909301078A
:10427000A0930207B093030780E098ECAFEAB8E49C
:104280008093040790930507A0930607B093070750
:1042900080E090E8A9EDB3EC8093080790930907BC
:1042A000A0930A07B0930B0780E090E4A5E1B4EC7B
:1042B00080930C0790930D07A0930E07B0930F0700
:1042C00080E090E0A0E2B1EC80931007909311079A
:1042D000A0931207B09313070C948A201F93CF93D7
:1042E000DF93182FEB0181E5189FB00111247D5F4A
:1042F00040E550E0CE010E942C20892B39F4188231
:10430000BE01812F0E94712080E001C081E0DF9119
:10431000CF911F910895CF93DF93EC0140E550E0DA
:104320006EEA73E00E942C20892B21F41882CE01C2
:104330000E947A2081E0DF91CF9108951F93CF935F
:10434000DF93182FEB018DE0189FB00111247E5FE1
:104350004CE050E0CE010E942C20892B59F48CE0D7
:10436000FE0111928A95E9F7BE01812F0E948120FA
:1043700080E001C081E0DF91CF911F91089580E03E
:1043800090E00E94C41F893059F44EE450E061E08F
:1043900070E084EE96E00E942C2021E0892B09F445
:1043A00020E0822F0895CF92DF92EF92FF92CF9379
:1043B000DF93C82F6A017B0120E030E0A901C7012B
:1043C000B6010E94873487FD0BC1C43608F445C08E
:1043D0002CE92C0F80E02330B8F530E0823079F002
:1043E000F901EE0FFF1FEE0FFF1F833011F1813037
:1043F00019F0EC51F94F23C0E051F94F20C0E90109
:10440000CC0FDD1FCC0FDD1FC450D94F20E030E0B2
:1044100040E752E4C701B6010E94C53620E030E013
:1044200040E752E40E94C536688379838A839B8380
:10443000D3C0E85FF84FF7FAF094F7F8F094C08231
:10444000D182E282F382C8C08F5F2A3008F4CAC0EA
:10445000843009F4C7C02A50BECFC701B6010E94FC
:1044600093370E94FB348C2F90E08932910508F03D
:10447000B9C0FC01EF5AFF4F0C94EB37633008F4DE
:10448000B3C060931407A8C060931707A5C06093DA
:10449000150702C0609316070E94E1189DC0809125
:1044A000210790912207662311F0846091C08B7FD1
:1044B0008FC08091210790912207662311F08064BC
:1044C00087C08F7B85C0809121079091220766234A
:1044D00011F080687DC08F777BC060931807C09211
:1044E0001907D0921A07E0921B07F0921C0774C0BC
:1044F000C0921D07D0921E07E0921F07F09220077E
:104500006BC08091210790912207662311F0816092
:104510005FC08E7F5DC08091210790912207662346
:1045200011F0826055C08D7F53C08091210790911A
:104530002207662321F084FF59C0806249C08F7D25
:1045400047C08091210790912207662311F088606F
:1045500001C0877F90932207809321070E94CE2875
:104560003BC08091210790912207662311F0806162
:104570002FC08F7C2DC0609323072EC0C0922407CC
:10458000D0922507E0922607F092270725C0C09217
:104590002807D0922907E0922A07F0922B071CC027
:1045A00070E070932D0760932C0716C0C0922E0701
:1045B000D0922F07E0923007F09231070DC0809122
:1045C000210790912207662311F0916001C09E7F20
:1045D00090932207809321070E948A2080E007C0E1
:1045E00084E005C083E003C086E001C08AE0DF917B
:1045F000CF91FF90EF90DF90CF9008951F93CF93CE
:10460000DF93CDB7DEB72C970FB6F894DEBF0FBEA1
:10461000CDBF0E94BF21811107C087E00E94F62C08
:104620000E9497200E94912D10E0BE016F5F7F4F86
:10463000812F0E949E21811103C087E00E94F62CE9
:104640001F5F183091F72C960FB6F894DEBF0FBE9F
:10465000CDBFDF91CF911F910895882321F0813044
:1046600021F488E0089584E0089580E10895882386
:1046700021F0813021F480E4089580E2089580E8FB
:104680000895882321F0813021F484E0089582E0A8
:10469000089580E108954F925F926F927F928F927A
:1046A0009F92AF92BF92CF92DF92EF92FF920F93C1
:1046B0001F93CF93DF9310915302111101C012E1A8
:1046C000115000915102101709F4EFC08EE2189FAB
:1046D000E0011124CB5ADD4F8A8C9B8CAC8CBD8CB5
:1046E0006EA17FA188A599A59B01AC010E94AE3364
:1046F0002AA53BA54CA55DA50E94C5366B017C0192
:104700009B01AC01B401C5010E94873487FF02C040
:1047100064017501A601B7014E8B5F8B688F798F9D
:10472000111101C012E177247A94710E701619F0FC
:104730002EE2622E27C080915402081351C00E94BD
:104740006B194EC0679C800111240B5A1D4F7110CC
:1047500002C092E1792E7A9480915402781202C0BC
:104760000E946B19F801C28CD38CE48CF58CA701E4
:10477000960166897789808D918D0E948734811199
:1047800006C0E801809151027812DCCF29C0F801FF
:1047900066A177A180A591A59B01AC010E94AE33D3
:1047A000F80122A533A544A555A50E94C5362E893A
:1047B0003F89488D598D0E94AE334B015C01A701A2
:1047C00096010E948734F80187FF05C0868A978A80
:1047D000A08EB18ED6CFC68AD78AE08EF18ED1CF89
:1047E00060905102FEE26F9E800111240B5A1D4F12
:1047F00077247394760C82E1781201C0712C50906A
:1048000053028EE2482E751409F44DC0479CE00116
:104810001124CB5ADD4FF80186889788A08CB18C83
:10482000CE88DF88E88CF98CA7019601C501B40118
:104830000E94873487FF23C0F80166A177A180A575
:1048400091A59B01AC010E94AE33F80122A533A5CE
:1048500044A555A50E94C5369B01AC01C501B40114
:104860000E94AE334B015C01A70196010E94873480
:1048700087FF05C08E8A9F8AA88EB98E672C2A8DE5
:104880003B8D4C8D5D8D6E897F89888D998D0E94C1
:104890008734811101C0672C7394F2E17F1201C04B
:1048A000712C8E01B0CF60925102DF91CF911F9198
:1048B0000F91FF90EF90DF90CF90BF90AF909F90BF
:1048C0008F907F906F905F904F9008958CE1E5E31B
:1048D000F2E0DF011D928A95E9F7109254021092DE
:1048E000530281E0809352021092510208959091F8
:1048F000540280915302891769F081E0890F823157
:1049000009F480E020915102921302C08093510279
:104910008093540208958091540290915302981705
:1049200039F02EE2829FC00111248B5A9D4F0895C9
:1049300080E090E00895E0915402EF5FE23109F4E5
:10494000E0E080915302E81761F08EE2E89FF00109
:104950001124EB5AFD4F66897789808D918D0C94D7
:10496000523760E070E0CB01089581E0209154025D
:1049700090915202291380E008952F923F924F9216
:104980005F926F927F928F929F92AF92BF92CF92DF
:10499000DF92EF92FF920F931F93CF93DF93CDB7E8
:1049A000DEB7AD970FB6F894DEBF0FBECDBF4B8F0D
:1049B0005C8F6D8F7E8FB22E209153023EE2239F3B
:1049C00010011124F101EB5AFD4F1F01E082F18229
:1049D00002831383C482128A138A148A158A12A648
:1049E00013A614A615A6158249E956E766E97EE7DF
:1049F00046A357A360A771A76C0104EE16E09E01C1
:104A0000235F3F4F38A32F8F85E392E09AA389A3BA
:104A10007F01FE0131964F01A12CF6016191719148
:104A2000819191916F01F8012081318142815381FF
:104A30000E94C5360E949536EF8DF8A1619371935F
:104A400081939193F8A3EF8FE9A1FAA1419051903E
:104A500061907190FAA3E9A3641975098609970911
:104A60002B013C0197FF07C0442455243201461A0C
:104A7000570A680A790AF70146825782608671866A
:104A8000F101228933894489558942165306640607
:104A9000750610F429013A01F101428A538A648AA9
:104AA000758A0E942935F801208131814281538124
:104AB0000E948E342B013C01F40161937193819328
:104AC00091934F0120E030E0A9010E94873487FFD5
:104AD0000AC0F10195818A2D9DA70E9437239DA5CB
:104AE000892BF1018583A3019201C301B2010E94C8
:104AF000C536F10122A533A544A555A50E94AE33C4
:104B0000F10162A773A784A795A7A3940C5F1F4F19
:104B1000F4E0EF0EF11C23E0A2127FCF0E94523787
:104B20006B017C01F10162A773A784A795A7828915
:104B30009389A489B589892B8A2B8B2B09F4E5C12C
:104B400020E030E0A9016B8D7C8D8D8D9E8D0E94C3
:104B5000873487FD21C0BB2061F02B8D3C8D4D8DAE
:104B60005E8DC701B6010E948E346B8F7C8F8D8F56
:104B70009E8F20E030E040E85FE36B8D7C8D8D8D73
:104B80009E8D0E94873487FF0FC01B8E1C8E90E87D
:104B90009D8FEFE3EE8F08C0F9E9FB8F26E72C8F9E
:104BA00036E93D8F8EE78E8FA701960160E070E0B9
:104BB00080E89FE30E948E3469A77AA78BA79CA701
:104BC00021E432E03CA32BA380EF96E09AA389A3D3
:104BD000FE013D96FA8FE98F9E012F5F3F4F38A36C
:104BE0002F8FC12CD12C7601EF8DF8A18080918080
:104BF000A280B38020E030E0A901C501B4010E9489
:104C00008734882309F483C029A53AA54BA55CA560
:104C1000C501B4010E94C5364B015C01EF8DF8A1BE
:104C200060837183828393839B01AC0160E070E0B9
:104C300080E89FE30E948E342B013C01E89477F8D2
:104C4000E9A1FAA12081318142815381C301B201DE
:104C50000E94C5366DA37EA38FA398A79B01AC01CC
:104C60006B8D7C8D8D8D9E8D0E94873487FF08C053
:104C7000FB8DFDA32C8D2EA33D8D3FA38E8D88A78C
:104C8000F101F6A1FB8FF101F7A1FC8FF101F0A575
:104C9000FD8FF101F1A5FE8FE9A1FAA124853585EB
:104CA00046855785C301B2010E94C5363B018C0180
:104CB0009B01AC016B8D7C8D8D8D9E8D0E94873408
:104CC00087FF04C06B8C7C8C0D8D1E8DC301D801B9
:104CD000F10186A397A3A0A7B1A7EBA1FCA1208116
:104CE000318142815381C501B4010E94C5369B01C7
:104CF000AC01C701B6010E94AD336B017C01FDA17F
:104D0000FB8F2EA12C8F3FA13D8F88A58E8FEF8D1D
:104D1000F8A13496F8A3EF8F2BA13CA12C5F3F4F55
:104D20003CA32BA389A19AA104969AA389A3298DB8
:104D30003A8DE217F30709F057CF90915302809113
:104D4000540298130AC0F101168A178A108E118E28
:104D5000168E178E10A211A249C0A701960160E01D
:104D600070E080E89FE30E94AD3320E030E040E057
:104D70005FE30E94C5360E9452376B017C0120918F
:104D8000190730911A0740911B0750911C07F10138
:104D900066A177A180A591A50E94C536A7019601BD
:104DA0000E94C5364B015C01A701960160E070E0EE
:104DB00080E89FE30E94AD339B01AC01C501B401C3
:104DC0000E948E347B018C0120E030E0A9010E941A
:104DD000873487FF04C0E12CF12C00E010E0A7012C
:104DE000B801F101468F578F60A371A32B8D3C8DC5
:104DF0004D8D5E8D6B8D7C8D8D8D9E8D0E94C5360B
:104E0000162F072FF82EE92E862F902FAF2DBE2DAF
:104E1000F10182A393A3A4A3B5A3A68CB78CC0A0D1
:104E2000D1A060904D0270904E0280904F02909001
:104E300050029301A401612F702F8F2D9E2D0E948F
:104E4000873487FD0BC09301A401B501C6010E9400
:104E5000873487FD11C0530164010EC0212F302F0C
:104E60004F2D5E2DB501C6010E94873487FD04C019
:104E7000A12EB02ECF2CDE2CC501D601F101828FE0
:104E8000938FA48FB58F8CE0FE013196A1E4B2E040
:104E900001900D928A95E1F7812F902FAF2DBE2DB5
:104EA00080934D0290934E02A0934F02B093500214
:104EB0008CE0FE013D96A5E3B2E001900D928A954B
:104EC000E1F780915202809353028F5F823109F49F
:104ED00080E080935202AD960FB6F894DEBF0FBE0D
:104EE000CDBFDF91CF911F910F91FF90EF90DF9099
:104EF000CF90BF90AF909F908F907F906F905F907A
:104F00004F903F902F900C944B23AD960FB6F89492
:104F1000DEBF0FBECDBFDF91CF911F910F91FF90EC
:104F2000EF90DF90CF90BF90AF909F908F907F9049
:104F30006F905F904F903F902F90089580919505CE
:104F400090919605A0919705B091980580933502B0
:104F500090933602A0933702B0933802809199055E
:104F600090919A05A0919B05B0919C058093390280
:104F700090933A02A0933B02B0933C0280919D052E
:104F800090919E05A0919F05B091A00580933D0250
:104F900090933E02A0933F02B09340020895809107
:104FA000530290915402891708F48E5E891B08956C
:104FB0000E946B1980915402809351020C944B23F0
:104FC0006F927F928F929F92AF92BF92CF92DF9219
:104FD000EF92FF920F931F93CF93DF937C018B018E
:104FE0006A01FB018081F701E80FF11D2081EF01CB
:104FF0002D3229F4229621816624639407C02B3236
:1050000011F0219602C022962181612CA12CB12C95
:10501000712C60E070E0CB01FE0130ED932E920E1A
:1050200029E02915C8F0B39428E02B1588F0A110C9
:105030007A94A5E0B0E09B01AC010E94B237660F04
:10504000771F881F991F690D711D811D911D0BC050
:10505000A11009C0739407C02EEF921207C0A110CF
:1050600005C0AA24A39421962081D6CFBB2009F4A1
:1050700049C00E9427354B015C0120E030E0A901C6
:105080000E948734882361F18FEF78166CF42AE050
:1050900037ED43E25CE3C501B4010E94C5364B0124
:1050A0005C0173947394F0CF78120BC02DEC3CEC40
:1050B0004CEC5DE3C501B4010E94C5364B015C01B7
:1050C0000FC0772069F020E030E040E251E4C501F4
:1050D000B4010E94C5364B015C017A9417149CF30D
:1050E000662021F0B7FAB094B7F8B094F601808248
:1050F0009182A282B382CE19DF09C150F801C08328
:1051000081E001C080E0DF91CF911F910F91FF906E
:10511000EF90DF90CF90BF90AF909F908F907F9057
:105120006F900895009741F0EFE9FFE03197F1F7B4
:1051300000C000000197F6CF08958F929F92AF9222
:10514000BF92CF92DF92EF92FF9269017A019B01A9
:10515000AC010E94C5364B015C01A7019601C70155
:10516000B6010E94C5369B01AC01C501B4010E9485
:10517000AE33FF90EF90DF90CF90BF90AF909F90B5
:105180008F900C945237EBE6F0E08081897E80832B
:10519000E8E6F0E080818E7F8083089584B1897E87
:1051A00084B99091210785B196FF02C0897E01C024
:1051B000866185B993FF0BC080916B0086618093F7
:1051C0006B008091680081608093680008950C9462
:1051D000C3281F920F920FB60F9211242F933F9363
:1051E0004F935F936F937F938F939F93AF93BF93EF
:1051F000EF93FF9380919205813071F08091930538
:1052000085FD0AC00E9419099FB7F8948091930503
:105210008066809393059FBFFF91EF91BF91AF91FF
:105220009F918F917F916F915F914F913F912F91BE
:105230000F900FBE0F901F9018952F923F924F9294
:105240005F926F927F928F929F92AF92BF92CF9216
:10525000DF92EF92FF920F931F93CF93DF93CDB71F
:10526000DEB76C970FB6F894DEBF0FBECDBF898F47
:10527000809191058111CEC1409028075090290757
:1052800060902A0770902B0708E017E0188F0F8BAB
:105290009E01235F3F4F59018E01005F1F4F212C5C
:1052A0001D8A812C912C312C832D0E944123D80101
:1052B0008D938D01832D0E942D23F50181935F0134
:1052C000AF89B88DCD90DD90ED90FD90B88FAF8B0C
:1052D000A7019601622D7D89C4010E948A361816A5
:1052E0001CF0C22CDD8874013394B3E03B1621F02E
:1052F0002C2CDD8A4701D8CF20E030E040EC5FEB7A
:10530000C701B6010E94C5364B015C010E946624AC
:10531000E6E0ED8B33243394F98CEF2CF12CF88EEE
:10532000EF8A950184013058098F1A8F2B8F3C8F9B
:105330009E01205F3F4F3C8B2B8B8091210786FD88
:1053400002C0232C03C0222423942324A0912307EA
:105350006A2F70E0DE01119680E090E0D12C40E0F1
:10536000582FEF89F88D082E02C0F595E7950A941D
:10537000E2F79F0121703327E0FF13C04F5F311028
:105380000AC0E98CFA8C0B8D1C8DED92FD920D9369
:105390001C9313970BC08D929D92AD92BC92139764
:1053A00005C01D921D921D921C921397FB0102C015
:1053B000F595E7955A95E2F7E0FF0EC0ED90FD9068
:1053C0000D911C91139717FB109517F91095ED92FD
:1053D000FD920D931C931397232B41F0EDE0F0E029
:1053E000EC0FFD1FE80FF91F2081D22A01961496B9
:1053F0008330910509F0B4CF642F70E080E090E035
:105400000E9427350E9452379B01AC01D09294052F
:10541000C301B2010E94C536AB01BC01C12CE12C15
:10542000F12C870120E0CE0101960E94BD240E944C
:105430008D190E945C1616E183B121108127DE01CF
:105440005096FE013D962191922F9D2129F09C912D
:10545000982311F02095D22211962B893C89E217CE
:10546000F30789F7D09294050E948D1980919305D6
:1054700084FF03C00E942815CDC08D2D8C71E1F6EC
:105480000E941D190E94662480912C0790912D077F
:105490000E9492284090240750902507609026078C
:1054A0007090270781E038263D8931503D8B3111BE
:1054B00044CF80912307E82EF12CFE8AED8AC0901C
:1054C0002E07D0902F07E0903007F090310797011A
:1054D00086013058098F1A8F2B8F3C8F85E9A82EB3
:1054E00085E0B82E94EE292E96E0392E9E012F5F8E
:1054F0003F4F490100E010E08F89988D002E02C0D7
:10550000959587950A94E2F780FF3DC08D899E8925
:10551000002E02C0959587950A94E2F780FF23C07C
:10552000D10194964D905D906D907C909797A301DA
:105530009201C701B6010E94AE33F401608371830A
:1055400082839383D1012D913D914D915C91C30153
:10555000B2010E94C5360E949536F50160837183C1
:105560008283938323C0898D9A8DAB8DBC8DF4018A
:1055700080839183A283B383D5011D921D921D92D6
:105580001C92139713C0F501608171818281938110
:105590000E942935D1012D913D914D915C910E9440
:1055A0008E34F40160837183828393830F5F1F4F76
:1055B000F4E08F0E911C24E0A20EB11C34E0230E07
:1055C000311C0330110509F097CF0E949E274091AE
:1055D00028075091290760912A0770912B07C12C49
:1055E000E12CF12C870120E0CE0101960E94BD2420
:1055F00088E0809392059FB7F8948091930582602C
:10560000809393059FBF0E9428150E94421684E054
:10561000809392056C960FB6F894DEBF0FBECDBF97
:10562000DF91CF911F910F91FF90EF90DF90CF907E
:10563000BF90AF909F908F907F906F905F904F90B2
:105640003F902F900895CF92DF92EF92FF920F93A9
:105650001F93CF93DF938C01C8E0D7E0F801C1908E
:10566000D190E190F1908F0120E030E0A901C701D5
:10567000B6010E948A36181654F029913991499141
:105680005991C701B6010E94873487FF27C08091D6
:105690009205803179F49FB7F894809193058860E2
:1056A000809393059FBF0E942815809191058823C0
:1056B000D1F319C00E9419099FB7F89480919305FE
:1056C0008066809393059FBFDF91CF911F910F91CB
:1056D000FF90EF90DF90CF900C942815F7E0C43145
:1056E000DF0709F0BBCFDF91CF911F910F91FF90A2
:1056F000EF90DF90CF900895CF93DF93EC018991E5
:10570000882319F00E947314FACFDF91CF91089586
:10571000CF93DF93FC018491EF012196882321F040
:105720000E947314FE01F7CFDF91CF910895EF929D
:10573000FF920F931F93CF93DF93CDB7DEB72897D8
:105740000FB6F894DEBF0FBECDBFFE0131967F01CC
:105750009E01275F3F4F982F917091938695E21796
:10576000F307C9F78F01F80182918F01805D0E94D4
:1057700073140E151F05B9F728960FB6F894DEBFFF
:105780000FBECDBFDF91CF911F910F91FF90EF9092
:1057900008951F93CF93DF9300D01F92CDB7DEB74C
:1057A000811109C080E30F900F900F90DF91CF918E
:1057B0001F910C94731490E02AE011E0190FE1E0BE
:1057C000F0E0EC0FFD1FE90FF11D622F0E94BD37C5
:1057D000905D9083882311F0912FEFCF112341F03A
:1057E000FE01E10FF11D80810E9473141150F6CF6C
:1057F0000F900F900F90DF91CF911F9108958F928E
:105800009F92AF92BF92CF92DF92EF92FF920F934F
:105810001F93CF93DF93CDB7DEB72A970FB6F894D7
:10582000DEBF0FBECDBF6B017C01142F20E030E046
:10583000A9010E94873487FF07C08DE20E9473147C
:10584000F7FAF094F7F8F094012F023060F020E0BE
:1058500030E048EC52E4C701B6010E94C5366B0146
:105860007C010250F2CF10FF0AC020E030E040E29D
:1058700051E4C701B6010E94C5366B017C0120E0EE
:1058800030E040E05FE3C701B6010E94AE330E9402
:10589000F634E1E0F0E0EC0FFD1FE10FF11D2EE228
:1058A0002083D12C5AE0852E912CA12CB12C61158E
:1058B000710581059105A9F0D11201C0D394EE24A0
:1058C000E394F12CEC0EFD1EED0CF11CA5019401EE
:1058D0000E94C937605DF7016083B901CA01D394A2
:1058E000E6CF80E3D11648F4E1E0F0E0EC0FFD1FD5
:1058F000ED0DF11D8083D394F5CF8D2DD1120BC00A
:10590000D394D3948F5FE1E0F0E0EC0FFD1FE80F3C
:10591000F11D80E38083DD2041F0FE01ED0DF11DDE
:1059200080810E947314DA94F6CF2A960FB6F89409
:10593000DEBF0FBECDBFDF91CF911F910F91FF90C2
:10594000EF90DF90CF90BF90AF909F908F90089591
:105950002091210720FF08C02BE832E441E25DE3FB
:105960000E94C53644E001C043E00C94FF2B209117
:10597000210720FF08C02BE832E441E25DE30E94EA
:10598000C53641E001C040E00C94FF2B43E00C948D
:10599000FF2B3D988091210787FF04C04598109206
:1059A00032070895459A80E280933207089586B1C0
:1059B000807290913207892708958091A2058130E5
:1059C000A1F40E94D72C882381F01092A2058CE0CC
:1059D000E5E9F5E0A3EAB5E001900D928A95E1F7DB
:1059E000809193058860809393050895CF93C82F85
:1059F000811103C087E598E044C08FE498E00E94DD
:105A0000882B4C2F50E0FA013197E631F10580F5F3
:105A1000E658FF4F0C94EB3787E398E002C085E22D
:105A200098E00E94882B2BC083E198E0FACF89E0B0
:105A300098E0F7CF88EF97E0F4CF89EE97E0F1CFC9
:105A400088EC97E0EECF8FEB97E0EBCF84EB97E01D
:105A5000E8CF81EA97E0E5CF83E997E0E2CF8DE7F1
:105A600097E0DFCF89E697E0DCCF85E597E0D9CFF7
:105A700083E497E00E94882B8C2F0E94C92B80E43E
:105A800097E0CF910C94882BCF93C82F88E397E0B1
:105A90000E94882BCE3F51F0CF3F29F0CD3F51F4EB
:105AA0008AE097E005C088E297E002C085E197E0D0
:105AB0000E94882B87E097E00E94882B84EF91E07A
:105AC000CF910C949228CF93C82F85E097E00E9445
:105AD000882BC33091F038F4C13061F0C230A1F4AA
